:100000000C947A000C94633B0C94CC3A0C94AF3073
:100010000C9475330C94633B0C94633B0C94633BDE
:100020000C94633B0C94633B0C94633B0C94633BD8
:100030000C94633B0C94633B0C94633B0C94633BC8
:100040000C94633B0C94633B0C94633B0C94633BB8
:100050000C94633B0C94633B0C94633B0C94633BA8
:100060000C94633B0C94633B0C94633B0C94633B98
:100070000C94633B0C945E310C94633B0C94633B97
:100080000C94633B0C94633B0C94633B0C94633B78
:100090008C155516A0155516AC155516FC151016D1
:1000A0003A164616521628002C9B802C9B2CC80012
:1000B00076E62CC82D3B802D3B2D480077132D482C
:1000C0002D5F802D5F2D9B0077202D9B2DA3802DF4
:1000D000A32DA700775C2DA72DDC802DDC2DDD0066
:1000E000707D2DDD2DE5802DE52DE60076772DE662
:1000F0002DF0800011241FBECFEFCDBFDFE3DEBFA8
:10010000E6EAF0E040E017C0B591A5913591259160
:10011000059107FD0CC095918591EF01F92FE82F0E
:1001200005900D92A217B307D9F7FE0104C01D92E6
:10013000A217B307E1F7E33FF40731F70E94932AD0
:080140000C947439F894FFCF10
:10014800AAE9B0E0EAEAF0E00C947F366C017A01A3
:10015800C756DF4F68837983C959D040A12CB12C89
:1001680066246A94762C90E8492E512C25E2222E9A
:10017800C756DF4F68817981C959D040FB0180811A
:10018800882309F471C3CF57DF4F18821982C158E9
:10019800D040CD57DF4F68827982C358D040CB57C3
:1001A800DF4F18821982C558D04081E090E08C0F4B
:1001B8009D1FC957DF4F88839983C758D040C757B9
:1001C800DF4F48825982C958D040FB0100E010E057
:1001D8008191811116C001151105C1F0A801C60150
:1001E8000E94AC35C756DF4F88819981C959D040E4
:1001F800800F911FC756DF4F88839983C959D04014
:1002080005C0853241F30F5F1F4FE2CFC756DF4F5E
:10021800E881F981C959D0408081853209F012C33B
:100228004F019FEF891A990AC756DF4F8882998232
:10023800C959D040C756DF4F88819981C959D040E4
:10024800DC012C912B3241F4CF57DF4F28813981C3
:10025800C158D04024600BC02C32BCF02D3249F577
:10026800CF57DF4F28813981C158D0402160CF57FF
:10027800DF4F28833983C158D0400196C756DF4FD6
:1002880088839983C959D040D5CF203241F4CF57BC
:10029800DF4F28813981C158D0402860E8CF233208
:1002A80091F4CF57DF4F28813981C158D040206160
:1002B800DECF203341F4CF57DF4F28813981C15831
:1002C800D0402260D4CF2A3289F50196C756DF4F35
:1002D80088839983C959D040D701ED91FC91119732
:1002E800CF0102968D939C9380819181CB57DF4FEC
:1002F80088839983C558D04097FF35C0CF57DF4FC3
:1003080028813981C158D040B1E02B27CF57DF4F22
:1003180028833983C158D040919581959109CB574D
:10032800DF4F88839983C558D0401DC00E949731FC
:10033800CB57DF4F88839983C558D040C756DF4FC6
:10034800E881F981C959D0408081082E000C990BA9
:10035800C0970A9740F43196C756DF4FE883F98370
:10036800C959D040EBCFCF57DF4F88819981C15809
:10037800D04080FF07C08D7FCF57DF4F8883998398
:10038800C158D040C756DF4FE881F981C959D040DC
:1003980080818E3209F046C0CD57DF4F188219820E
:1003A800C358D040CF010196C756DF4F8883998341
:1003B800C959D04021812A32C1F43296C756DF4F3D
:1003C800E883F983C959D040D701ED91FC91119781
:1003D800CF0102968D939C9380819181CD57DF4FF9
:1003E80088839983C358D0401DC00E949731CD5748
:1003F800DF4F88839983C358D040C756DF4FE881C1
:10040800F981C959D0408081082E000C990BC097FA
:100418000A9740F43196C756DF4FE883F983C959E4
:10042800D040EBCFCE0187569F4F0E94F434382E30
:10043800C756DF4FE881F981C959D0408081082E1D
:10044800000C990B0E94573A8936910509F456C059
:10045800B4F48336910509F46BC144F485329105EF
:1004680009F4A2C18136910529F1B4C184369105F8
:1004780009F444C0883691050CF436C1ABC1803705
:10048800910509F4C4C04CF48E36910509F420C1D5
:100498008F36910509F47AC09DC18537910509F415
:1004A80051C08837910509F495C08337910509F043
:1004B80091C15DC1632D70E0A701CE0185579F4FA3
:1004C8000E941435892B09F4B0C1C756DF4FE88163
:1004D800F981C959D040CF010196C756DF4F8883AB
:1004E8009983C959D0402081AE0145575F4FBE015D
:1004F8006F577F4FC6010E947E0794C1632D70E03D
:10050800970141E050E0CE0185579F4F0E94BD1AE8
:10051800892B09F48AC1C756DF4F88819981C95947
:10052800D0400196C756DF4F88839983C959D04078
:10053800AE0145575F4FBE016F577F4FC6010E94FE
:10054800FE1970C1632D70E0970140E050E0CE01C4
:1005580085579F4F0E94BD1A892B09F466C1C7565B
:10056800DF4F88819981C959D0400196C756DF4F1E
:1005780088839983C959D040AE0145575F4FBE0162
:100588006F577F4FC6010E9496294CC1632D70E0BA
:10059800970140E050E0CE0185579F4F0E94BD1A59
:1005A800892B09F442C1C756DF4F88819981C959FF
:1005B800D0400196C756DF4F88839983C959D040E8
:1005C800AE0145575F4FBE016F577F4FC6010E946E
:1005D800412628C1632D70E0970140E050E0CE012C
:1005E80085579F4F0E94BD1A892B09F41EC1C75613
:1005F800DF4FE881F981C959D040CF010196C7562C
:10060800DF4F88839983C959D040208157C097010B
:1006180040E050E060EF70E0CE0185579F4F0E94A8
:10062800BD1A892B09F401C1C756DF4F888199810A
:10063800C959D0400196C756DF4F88839983C95955
:10064800D04086E0EAEBF6EBDE01AD56BF4F0190F5
:100658000D928A95E1F7C557DF4F2881CB58D040D6
:10066800C457DF4F3881CC58D040C357DF4F48813B
:10067800CD58D040C257DF4F5881CE58D040C157CF
:10068800DF4F6881CF58D040C057DF4F7881C059BD
:10069800D040CF56DF4F8881C159D040CE56DF4F6A
:1006A8009881C259D040A0E00E941A3931F420E064
:1006B80030E0AE014D565F4FAFC028E7AE01455759
:1006C8005F4FBE016F577F4FC6010E941313AAC028
:1006D800632D70E09701A501400F511FCE0185578A
:1006E8009F4F0E946B25A1C0632D70E0A701CE012A
:1006F80085579F4F0E941435892B09F496C0C75619
:10070800DF4FE881F981C959D040CF010196C7561A
:10071800DF4F88839983C959D0402081AE0145575E
:100728005F4FBE016F577F4FC6010E943E047AC0DB
:10073800B0E83B127AC0C756DF4F88819981C95902
:10074800D0400196C756DF4F88839983C959D04056
:10075800D701ED91FC911197CF0102968D939C934F
:100768008081C557DF4F8883CB58D04050C0B0E850
:100778003B125BC0C756DF4F88819981C959D04069
:100788000196C756DF4F88839983C959D040D7014E
:10079800ED91FC911197CF0102968D939C93408126
:1007A800518120E030E038C0B0E83B123EC0C75667
:1007B800DF4F88819981C959D0400196C756DF4FCC
:1007C80088839983C959D040C557DF4F2882CB58B1
:1007D800D0401DC0C557DF4F2882CB58D040C756E0
:1007E800DF4F88829982C959D040CF57DF4F18828E
:1007F8001982C158D040CB57DF4F18821982C5588B
:10080800D040CD57DF4F68827982C358D04021E06D
:1008180030E0AE0145575F4FBE016F577F4FC601AD
:100828000E94DF32800F911F0EC0C756DF4F8881AC
:100838009981C959D0400196C756DF4F888399835B
:10084800C959D040C8018501080F191F0A151B0591
:100858004CF48FE490E080930028909301288FEF68
:100868009FEF03C0580184CCC501C656DF4FE2E1B3
:040878000C94B036F6
:10087C00A6E2B0E0E4E4F4E00C947F368E8F9F8F18
:10088C00688F798F122FFB010190F081E02DE987A1
:10089C00FA87FB01C280D380248135812B8B3C8B62
:1008AC008085918588A399A326803780FA01808062
:1008BC009180A280B38020E030E0A901C501B40191
:1008CC000E94013B87FF06C0B7FAB094B7F8B0940A
:1008DC008DE204C0598552FFF0C28BE2F101808396
:1008EC002B893C89215031092F83388741E050E016
:1008FC00498B5A8B06C08B899C898F839887198A60
:10090C001A8AD501C401BF770097E0E8AE07EFE77C
:10091C00BE07B1F4212F110F330B215431098989F2
:10092C009A89820D931D2A31310518F46EEB74EB04
:10093C0002C062EC74EB0E946F3A82EC94EBADC295
:10094C000197A048BF47B0F0212F110F330B215452
:10095C00310989899A89820D931D2A31310518F440
:10096C0066EC74EB02C06AEC74EB0E946F3A8AEC92
:10097C0094EB93C220E030E0A901C501B4010E94C0
:10098C00013B1B821C82882309F46CC020E82D8358
:10099C003FE33E8319821A8220E030E040E251E4CA
:1009AC006B817C818D819E810E94303BF62E072FBE
:1009BC008D879B87A50194010E94063B18166CF04D
:1009CC0049815A814F5F5F4F49835A83FB820C8365
:1009DC005D855D838B858E83DFCF1B861C862B818B
:1009EC003C814D815E81C501B4010E94013B87FFB2
:1009FC003FC0E981FA81E43DFE4F04F54B855C85EF
:100A0C00452BE1F420E030E040E85AE5C501B401A3
:100A1C000E94303B4B015C0120E030E040E85AE59D
:100A2C006B817C818D819E810E94303B6B837C83AA
:100A3C008D839E8381E090E08B879C8720E030E063
:100A4C0040E251E46B817C818D819E810E942C3B24
:100A5C006B837C838D839E83E981FA813197E98353
:100A6C00FA83BDCFF0E8FD832FE32E8319821A821F
:100A7C00412F110F550B4AA35BA3CA010E94573A91
:100A8C008B8FD7FC03C0CDA2DEA204C086E090E021
:100A9C008DA39EA39B8D973641F4CD2809F012C2ED
:100AAC00E1E0F0E0EDA3FEA30DC28B8D8D8B06C0B3
:100ABC0029813A8137FF19C296E69D8BEDA1FEA1E3
:100ACC003196EDA3FEA3FD89F636B9F429813A815E
:100ADC0037FF08C01B821C8230E83D834FE34E83F6
:100AEC0019821A825B8D573641F08DA19EA1E98146
:100AFC00FA818E0F9F1F8DA39EA3FB81FB872C81F8
:100B0C002D873D813E8B4E814A8F750164011C8E71
:100B1C001D8EEC8DFD8D2DA13EA1E217F307B9F1D1
:100B2C002B853D854E895A8DC701B6010E942C3B01
:100B3C000E94551F2B013C010E94A13A6CA3870116
:100B4C00760117FB109517F910952B853D854E896D
:100B5C005A8DC301B2010E94811D6B017C01F7FA11
:100B6C00F094F7F8F09420E030E040E251E46B852B
:100B7C007D858E899A8D0E942C3B6B877D878E8B11
:100B8C009A8F8C8D9D8D01968C8F9D8FC2CF20E07E
:100B9C0030E040EA50E46B857D858E899A8D0E9409
:100BAC00303B2B013C019B01AC01C701B6010E94FB
:100BBC00013B87FD0BC0A3019201C701B6010E9446
:100BCC00013B811106C03CA130FD03C0412C512CCE
:100BDC003201A3019201C501B4010E94863A4B0176
:100BEC005C014D89453619F069807A8002C0612C10
:100BFC00712C23018DA19EA1481A590AC988DA8843
:100C0C0000E010E01B861C86E985FA85E071FF2761
:100C1C00EE8BFF8B6414750431F4EB85FC85EF2BA4
:100C2C0009F496C0A1C0CC8EDD8EE88DF98D80853F
:100C3C0091850597C816D90680F72B813C814D818B
:100C4C005E81C501B4010E942C3B0E94551F6D872B
:100C5C007E878F87988B0E94A13ACB012E893F8982
:100C6C00232B69F4892B59F43B8D373641F477FEED
:100C7C0006C0A8014F5F5F4F4C8F5D8F3FC08B85C7
:100C8C009C85892BA9F477FE13C09FEFC91AD90A4A
:100C9C00EC8DFD8DE20DF31D2EE220834F815885E6
:100CAC00415051094F83588781E090E08B879C8796
:100CBC00F101EC0DFD1D0C8F1D8F4C8D5D8D452BA9
:100CCC0049F090E391932C8D3D8D215031092C8F5F
:100CDC003D8FF3CFC8018C0D9D1D2F813885201BB6
:100CEC00310B6C015FEFC51AD50AF101E80FF91F42
:100CFC00605D6083C90101978F83988785017401BA
:100D0C0017FB109517F910952B813C814D815E8155
:100D1C006D857E858F8598890E94811D4B015C01B4
:100D2C00B7FAB094B7F8B09420E030E040E251E468
:100D3C006B817C818D819E810E942C3B6B837C839B
:100D4C008D839E8391E0691A71080C8D1D8D62CF85
:100D5C00F985F4FF09C0F101EC0DFD1D8EE28083D5
:100D6C0096012F5F3F4F6901A1014C0D5D1D4B8713
:100D7C005C87FA011082FD89F53609F061C0E8A1A3
:100D8C00F9A1E20DF31D3197108229813A8137FFC9
:100D9C0008C031952195310929833A8301E010E08F
:100DAC0002C000E010E0E8A1F9A13197E20DF31DBB
:100DBC0022E030E08AE0E82EF12CCF018219930971
:100DCC0049815A81452B91F089819A81B7010E9402
:100DDC007137805D829369837A83215031094F8109
:100DEC005885415051094F835887E7CF1216130687
:100DFC005CF3FC013197E20DF31D012B11F42BE296
:100E0C0001C02DE220830297B101680F791F2AA13E
:100E1C003BA1215431092A31310510F025E601C0DE
:100E2C0025E4FB0120832F813885225031092F8343
:100E3C003887C816D90624F48B859C850E946F3A96
:100E4C00398531FF29C030FD27C04F8158851416D4
:100E5C00150614F5C1010E94CC38820D931D9C011E
:100E6C002219330949895A89241735074CF0FC019A
:100E7C002081EF81F885E80FF91F20830197EFCFD0
:100E8C004F81588560E370E089899A89820D931DA2
:100E9C000E94FD391B8A1C8AC1010E94CC3809852D
:100EAC001A852B893C89AC01B1018E8D9F8D0E94D6
:100EBC00E62AA696E2E10C94B036598553FF1BCD79
:100ECC0080E20CCD89819A818C3F9F4F5CF0298107
:100EDC003A814DA15EA1241735070CF4E9CD55E6F6
:100EEC005D8B0BCEF5E6FD8B08CE36E63D8B05CE45
:100EFC00A0E2B0E0E4E8F7E00C947F368A8F9B8F99
:100F0C00FB01298320812F8331813C8F8281938146
:100F1C00888B998B248135812A873B8780859185A5
:100F2C008E8B9F8B66807780FA01C080D180E280A7
:100F3C00F38020E030E0A901C701B6010E94013B1B
:100F4C0087FF06C0F7FAF094F7F8F0948DE204C02E
:100F5C005F8152FFE3C28BE2F30180832A853B85DC
:100F6C00215031092C873D8741E050E04D835E8351
:100F7C0006C08A859B858C879D871D821E82B70142
:100F8C00A6017F77E9810E2E000CFF0BEE87FF8701
:100F9C0041155105F0E86F07FFE77F07A9F42E858F
:100FAC003F85215431098D819E81860D971D2A31F3
:100FBC00310518F46EEC74EB02C062ED74EB0E9418
:100FCC006F3A82ED94EB9AC28D819E81860D971DAE
:100FDC004130510560487F4788F02E853F8521546C
:100FEC0031092A31310518F466ED74EB02C06AED53
:100FFC0074EB0E946F3A8AED94EB80C220E3FC0103
:10100C002083ED81FE813196E60DF71D2D813E8109
:10101C002E5F3F4F2D833E834E855F854154510992
:10102C00488F598F4A31510510F088E701C088E587
:10103C00808320E030E0A901C701B6010E94013B8A
:10104C001B821C821F8E1982882309F469C050E808
:10105C0058A38FE38A832F8D398148A15A816F8DD4
:10106C00798188A19A810E94863A5B018C01A70143
:10107C0096010E94063B18160CF447C0EB81FC81CC
:10108C003196EB83FC83AF8EB98208A31A83E3CF2E
:10109C0020E030E040E05FE36F8D798188A19A8198
:1010AC000E94303B20E030E0A9010E94013B8111FD
:1010BC0018C020E030E040E85AE56F8D798188A1B6
:1010CC009A810E94303B6F8F798388A39A8320E0AA
:1010DC0030E040E85AE5C701B6010E94303B6B0195
:1010EC007C0120E030E040E05FE36F8D798188A1E6
:1010FC009A810E94303B6F8F798388A39A832B81CE
:10110C003C81215031092B833C832F8D398148A19F
:10111C005A81C701B6010E94013B87FDB9CF04C0BB
:10112C0030E838A34FE34A838889998997FF02C036
:10113C0088E190E0FC013196E887F9878F8C9980E3
:10114C00A8A0BA8016018701412C512C9401A5014D
:10115C00B101C8010E942C3B0E94551F6A8B7B8BEE
:10116C008C8B9D8B9401A5010E94303B9B01AC01A3
:10117C00B101C8010E94853A1B018C0120E030E0CE
:10118C0040E85DE3B401C5010E94303B4B015C01BA
:10119C00FFEF4F1A5F0A2889398937FF09C020E011
:1011AC0030E0A901B101C8010E94013B882331F054
:1011BC0048855985441655064CF202C04886598616
:1011CC0020E030E040E051E4B401C5010E94303B26
:1011DC004B015C019B01AC01B101C8010E94013BB8
:1011EC0087FD12C0A5019401B101C8010E94013B09
:1011FC0081110DC06A897B898C899D890E94A13AD5
:10120C0061707727672B19F4812C912C5401A5015F
:10121C009401C701B6010E94863A6B017C01DC0186
:10122C00CB01BF770097A048BF4709F4B8CE2C84F8
:10123C003D8482E0281A3108E885F985F195E1951D
:10124C00F109EA8BFB8B0D811E81412C512C1C86E4
:10125C001D86188619862E893F89255031092D8FB8
:10126C003E8FED8DFE8D0E171F070CF092C02F8D4B
:10127C00398148A15A81C701B6010E942C3B0E94BA
:10128C00551F4B015C010E94A13AAB016115710520
:10129C0041F4E885F985EF2B21F0FFEF4F1A5F0A37
:1012AC004EC02C853D85232B91F4E885F985EF2BD9
:1012BC0071F0F301E00FF11F2EE2208331E0231ACD
:1012CC0031080F5F1F4FE1E0F0E0EC87FD87F30181
:1012DC00E00FF11F92012115310529F0A0E3A19334
:1012EC0021503109F8CFF801E40DF51DEE87FF8789
:1012FC00241835084A3051051CF4605D7F4F02C03C
:10130C00695A7F4F288D398D2A31310550F4CB0124
:10131C008062815691094A9720F4CB010E94063ACB
:10132C00BC010E851F850F5F1F4FEE85FF85E60DF7
:10133C00F71D608331E0231A3108412C512C2F8D7D
:10134C00398148A15A81C501B4010E94303B9B01EF
:10135C00AC01C701B6010E94853A6B017C0120E00B
:10136C0030E040E85DE36F8D798188A19A810E941D
:10137C00303B6F8F798388A39A8348855985415078
:10138C005109488759878A899B898417950709F0E1
:10139C0068CF2C853D85232B49F5F301E00FF11F18
:1013AC0041145104E1F04889598914161506BCF40E
:1013BC005F8150FD14C08EE28083F8013196E60DFA
:1013CC00F71DC20120E321930197E9F7040D151DC8
:1013DC000F5F1F4F40945094240C351C07C08F8115
:1013EC0084FF04C08EE280830F5F1F4FF301E00F78
:1013FC00F11FE887F9871082EE89FF89E60DF71D4A
:10140C00319710822B813C8137FF09C03195219592
:10141C0031092B833C83EE24E394F12C02C0E12CA4
:10142C00F12CEE89FF893197E60DF71D21E030E0B4
:10143C008AE0C82ED12CCF01861997094B815C818B
:10144C00452B79F08B819C81B6010E947137805DB0
:10145C0082936B837C832150310941E0241A31083B
:10146C00EACF2130310571F3FC013197E60DF71D00
:10147C00E114F10411F42BE201C02DE22083029758
:10148C00B301680F791FE88DF98D7A9710F020E77A
:10149C0001C020E5FB0120830817190724F4888577
:1014AC0099850E946F3AFF81F1FF27C0F0FD25C09E
:1014BC0022E0221A310812141304FCF4C3010E9416
:1014CC00CC38860D971D9C01261937094D815E81FC
:1014DC00241735073CF0FC012081E20DF31D20831D
:1014EC000197F1CFA10160E370E08D819E81860DA3
:1014FC00971D0E94FD391A861B86C3010E94CC38A9
:10150C000F811C8D2A853B85AC01B3018A8D9B8D87
:10151C000E94E62AA096E2E10C94B0365F8153FF5C
:06152C0028CD80E219CD7C
:10153200EF92FF920F931F93CF93DF9300D0CDB71B
:10154200DEB78C011092DF2D8091DD2D823020F0EC
:10155200833009F497C07FC28091E22D80FF7BC265
:10156200C8010E941F3AC80108960E941F3A41E032
:1015720050E06EEE7CE2C8010E94F32E0F2EFEEECA
:10158200EF2EFCE2FF2EF02D6FEE7CE2F701838D51
:10159200948D0E943436482F50E06FEE7CE2C801F1
:1015A2000E94F32E4AE050E063EF7CE2C8010E9401
:1015B200F32E42E050E06DEF7CE2C8010E94F32E70
:1015C200F70161897289FB0101900020E9F73197E7
:1015D200AF01461B570BC8010E94F32EF701878902
:1015E200908D892B31F48091012D9091022D892BC0
:1015F20051F142E050E061E07DE2C8010E94F32E29
:101602000F2EFEEEEF2EFCE2FF2EF02DF7014389A6
:10161200548954274527542765897689C8010E9431
:10162200F32E42E050E065E07DE2C8010E94F32E15
:10163200F7014789508D542745275427618D728DB4
:10164200C8010E94F32EC8010E94E535882309F4DF
:1016520005C28091E22D8E7F8093E22D85E08093FA
:10166200DF2D40E355E760E070E081E99DE20E94F2
:10167200892882E08093DD2D8091E02D8E7F8093FA
:10168200E02DE9C18091E22D882309F4E4C1482FBD
:1016920050E080FDE0C180E08F5F682F9A01082E44
:1016A20002C0359527950A94E2F720FFF5CF81E035
:1016B20090E002C0880F991F6A95E2F7883009F41A
:1016C200D3C020F4843009F44BC0C5C1803109F481
:1016D2004BC1803209F0BFC18091E02D81FFBBC1B7
:1016E2008091E02D8D7F8093E02D19821A82C801AE
:1016F2000E941F3AC80108960E941F3A8981817090
:10170200806C8E7F89831A8241E050E0BE016F5F58
:101712007F4FC8010E94F32E41E050E0BE016E5F90
:101722007F4FC8010E94F32EC8010E94E53588232D
:1017320009F491C18091E22D8F7D8093E22D8091F9
:10174200E12D80618093E12D40E355E760E070E098
:101752008DE79DE20E94892885E08093DF2D7BC181
:1017620087E89DE20E943537C8010E941F3AC801EE
:1017720008960E941F3A41E050E06DE17DE2C80107
:101782000E94F32E0F2EFDE1EF2EFDE2FF2EF02D33
:101792006EE17DE2F701868597850E943436482FF7
:1017A20050E06EE17DE2C8010E94F32E42E050E07B
:1017B20062E27DE2C8010E94F32EF7014581568163
:1017C20054274527542767817085C8010E94F32E4C
:1017D200F70180818670823071F441E050E067E267
:1017E2007DE2C8010E94F32E41E050E066E27DE214
:1017F200C8010E94F32EEDE1FDE2438550E06485CD
:101802007585C8010E94F32E8091E22D82FD04C0ED
:1018120080911D2D83FF30C1C8010E94E5358823C8
:1018220009F42AC18091E22D8B7F8093E22D809171
:101832001D2D8670823009F015C18091E12D8062E4
:101842008093E12D0FC19827892798279C01215069
:101852003109A8EEB3E00E94BD38AB01BC0187E8B4
:101862009DE20E948928F7C0C8010E941F3AC80160
:1018720008960E941F3A41E050E06DE27DE2C80105
:101882000E94F32E0F2EFDE2EF2EFDE2FF2EF02D31
:101892006EE27DE2F701848595850E943436482FF9
:1018A20050E06EE27DE2C8010E94F32E41E050E07A
:1018B20063E37DE2C8010E94F32E41E050E062E35F
:1018C2007DE2C8010E94F32E42E050E064E37DE233
:1018D200C8010E94F32EF7014781508554274527FE
:1018E200542761857285C8010E94F32E41E050E0C1
:1018F20068E37DE2C8010E94F32EC8010E94E5352B
:101902008823D1F08091E22D877F8093E22D809110
:10191200E12D84608093E12D8091E02D877F80937B
:10192200E02D40E355E760E070E083E79DE20E942E
:10193200892885E08093DF2D8091FB2C9091FC2CEF
:10194200009709F488C09827892798279C0121507D
:101952003109A8EEB3E00E94BD38AB01BC0187E8B3
:101962009DE20E94892877C0C8010E941F3AC801DF
:1019720008960E941F3A41E050E068E47DE2C80107
:101982000E94F32E0F2EF8E4EF2EFDE2FF2EF02D33
:1019920069E47DE2F701838594850E943436482FFD
:1019A20050E069E47DE2C8010E94F32E41E050E07C
:1019B2006EE47DE2C8010E94F32E41E050E06DE446
:1019C2007DE2C8010E94F32E42E050E06FE47DE226
:1019D200C8010E94F32EF7014781508554274527FD
:1019E200542761857285C8010E94F32EC8010E94A6
:1019F200E5358823D1F08091E22D8F7E8093E22D10
:101A02008091E12D88608093E12D8091E02D8F7E81
:101A12008093E02D40E355E760E070E089E69DE2C7
:101A22000E94892885E08093DF2D8091FB2C909184
:101A3200FC2C009781F09827892798279C01215038
:101A42003109A8EEB3E00E94BD38AB01BC0187E8C2
:101A52009DE20E9489288091DD2D11C086E080934D
:101A6200DF2DF9CF85E08093DF2D8091FB2C9091C3
:101A7200FC2C009781F3E7CE1092DD2DECCF0F9076
:101A82000F90DF91CF911F910F91FF90EF900895EA
:101A92002F923F924F925F926F927F928F929F927C
:101AA200AF92BF92CF92DF92EF92FF920F931F936A
:101AB200CF93DF93CDB7DEB7C455D109CDBFDEBF1B
:101AC2008B0169017A01813411F08435E9F424E053
:101AD20030E0AE014F5F5F4FC701B6010E94782F21
:101AE200811147C28A8126968FAF2697E091D32D26
:101AF200F091D42D309709F43CC2AE014B5B5F4F9D
:101B020061E08981099535C28234E9F424E030E04C
:101B1200AE014F5F5F4FC701B6010E94782F81115E
:101B220028C28A8126968FAF2697E091D32DF09115
:101B3200D42D309709F41DC2AE014B5B5F4F62E0BA
:101B42008981099516C2833409F077C02CE030E010
:101B5200AE014B5B5F4FC701B6010E94782F811126
:101B620008C22F968FAD2F9788230CF441C0482FBF
:101B7200082E000C550B2E962FAD2E973BE023031B
:101B8200F0011124EE5DF34D9185349FF001359FF4
:101B9200F00D1124EE5DF34D918791E090876196EF
:101BA2002EAD3FAD619728503109268337832091AE
:101BB200D52D3091D62DB9016F5F7F4F29F06093FB
:101BC200D52D7093D62D06C02E5F3F4F2093D52D75
:101BD2003093D62D9BE0949FF001959FF00D112438
:101BE200EE5DF34D2091D52D3091D62D2483358392
:101BF200898382E090E08A839B8329968EAD9FAD94
:101C020029978C839D832D968CAD9DADAEADBFADD6
:101C12002D978E839F83A887B987E091D32DF0916A
:101C2200D42D309709F4A5C1AE014F5F5F4F64E038
:101C32002E968FAD2E9709959CC1843411F08B346A
:101C420071F524E030E0AE014F5F5F4FC701B6018E
:101C52000E94782F81118DC1898126968FAF269798
:101C62009A8127969FAF279791110CC02BE0820291
:101C7200F0011124EE5DF34D2B813C812850310996
:101C820026833783E091D32DF091D42D309709F438
:101C920070C1AE014B5B5F4F65E009956AC18A3442
:101CA200E1F424E430E0AE014F5F5F4FC701B601BB
:101CB2000E94782F81115DC1E091D12DF091D22D3A
:101CC200309709F456C125964CAD5DAD6EAD7FAD32
:101CD2002597CE01019609954CC1863451F088347E
:101CE20069F08D3409F0DDC00F2EF6E0AF2EF02D35
:101CF20009C00F2EF6E0AF2EF02D04C00F2EF9E032
:101D0200AF2EF02D20E130E0AE014B5B5F4FC701FB
:101D1200B6010E94782F81112CC16296BFAC6297E6
:101D220065962EAD3FAD65976B2D0B2C000C770B96
:101D32008B2D9BE08902F0011124EE5DF34D12869A
:101D42002F968EAD9FAD2F976196AEADBFAD6197C9
:101D520029964EAD5FAD299749875A872D964CAC8F
:101D62005DAC6EAC7FAC2D974B865C866D867E86B5
:101D7200448155812417350709F0FBC0181619064E
:101D82000CF07DC04C018017910708F078C00097D5
:101D920009F4EFC02BE0269FF001279FF00D1124DC
:101DA200EE5DF34D20813181232B09F4E2C02BE05B
:101DB200269FF001279FF00D1124EE5DF34D228145
:101DC2003381232B09F4D5C02BE0269FF001279FF6
:101DD200F00D1124EE5DF34D2085213009F0C9C0CC
:101DE200CA0EDB1EE11CF11C8D839E832BE0269F15
:101DF200C001279F900D1124FC01EE5DF34D3F01C0
:101E02002F01F2E04F0E511C130128E0220E311C6B
:101E1200F201008111818016910608F48401F30118
:101E2200408151819801C701B6010E94782F81112A
:101E3200A0C0F3018081918189839A830B831C83E3
:101E42008D819E81801B910B8D839E83E091D32D8A
:101E5200F091D42D309731F0AE014F5F5F4F6A2D74
:101E62008B2D0995C00ED11EE11CF11CF101808160
:101E7200882309F47EC0801A910A51F67AC08B83B6
:101E82009C8319821A82E091D32DF091D42D309740
:101E920009F46FC0AE014F5F5F4F6A2D8B2D09951C
:101EA20068C0853431F0873431F08C3481F517E025
:101EB20003C017E001C018E028E030E0AE014F5F38
:101EC2005F4FC701B6010E94782F811152C08981EC
:101ED2004D815E812B813C8127962EAF3FAF2797A4
:101EE2002BE08202F0011124EE5DF34D2481358155
:101EF20042175307F1F5E091D32DF091D42D30978D
:101F0200C1F1AE014B5B5F4F612F099532C0823543
:101F120081F524E130E0AE014F5F5F4FC701B601AA
:101F22000E94782F811125C04D815E816F81788555
:101F32008091AF2D9091B02DA091B12DB091B22D85
:101F4200481759076A077B0781F4E091CF2DF0917A
:101F5200D02D309751F029853A854B855C85698172
:101F62007A818B819C81098909951092CF2D1092DB
:101F7200D02DCC5ADF4FCDBFDEBFDF91CF911F9165
:101F82000F91FF90EF90DF90CF90BF90AF909F9016
:101F92008F907F906F905F904F903F902F90089519
:101FA200CF92DF92EF92FF920F931F93CF93DF9323
:101FB200CDB7DEB72997CDBFDEBF8C011092DF2DE2
:101FC20019828091E02D82FD08C08091E02D83FD71
:101FD20004C08091E02D84FF05C01092DD2DC80160
:101FE2000E943F38F80186859785892B19F48091E4
:101FF200DD2DC3C18091DD2D823039F0833009F4AB
:102002007CC0813009F09FC1A1C18091E02D80FD8B
:102012006BC0C090FB2CD090FC2C81E99DE20E9409
:1020220035377801F8E0EF0EF11C41E050E0BE01D7
:102032006F5F7F4FC7010E94262E9C019981907F7E
:10204200903209F041C08E010E5F1F4F84E0F8010B
:1020520011928A95E9F741E050E0B801C7010E9468
:10206200E02D41E050E0BE016D5F7F4FC7010E944D
:10207200E02DB8016E5F7F4F41E050E0C7010E9442
:10208200E02D41E050E0BE016B5F7F4FC7010E942F
:10209200E02D8D81882309F45FC169C18091E22D11
:1020A20080628093E22D960121503109A8EEB3E0BF
:1020B2000E94BD38AB01BC0187E89DE20E948928DD
:1020C20084E08093DF2D42C182E08093DF2D8981FD
:1020D2008093DE2D2093B92D3093BA2D1092DD2DF1
:1020E200C8010E943F3832C11092DD2DC8010E9402
:1020F2003F3881E08093DF2D29C17801F8E0EF0EAF
:10210200F11C41E050E0BE016F5F7F4FC7010E94AA
:10211200262E898182958F70893099F138F4833027
:1021220009F4D7C0843009F4D8C010C18B3009F447
:1021320080C08D3009F00AC18091E12D84FF06C173
:102142008091E02D82FD02C18DE79DE20E9435372C
:102152001A821B8241E050E0BE016E5F7F4FC701D1
:102162000E94E02D8091FB2C9091FC2C892B29F070
:102172008091E22D80628093E22DC7010E941F3A76
:10218200E5C08091E12D82FFE1C08091E02D83FDC9
:10219200DDC083E79DE20E943537BE016E5F7F4F4F
:1021A20088E0FB0111928A95E9F741E050E0C7010E
:1021B2000E94E02D41E050E0BE016D5F7F4FC701FC
:1021C2000E94E02D41E050E0BE01695F7F4FC701F0
:1021D2000E94E02D41E050E0BE01685F7F4FC701E1
:1021E2000E94E02D98858091322D981312C09F8114
:1021F2008091332D98130FC041E050E0BE01675F1C
:102202007F4FC7010E94E02D8985803831F013E0AD
:1022120005C010E003C010E001C010E08091E12D84
:102222008B7F8093E12DC7010E941F3A1093DD2D11
:102232008DC08091E12D83FF89C08091E02D84FDC6
:1022420085C089E69DE20E943537BE016E5F7F4FF1
:1022520084E0FB0111928A95E9F741E050E0C70161
:102262000E94E02D41E050E0BE016D5F7F4FC7014B
:102272000E94E02D8B818230E1F441E050E0BE010A
:102282006C5F7F4FC7010E94E02D41E050E0BE012C
:102292006B5F7F4FC7010E94E02D9D8180914D2D84
:1022A200981309C09C8180914E2D981731F010E04F
:1022B20005C010E003C010E001C013E08091E12DE1
:1022C200877F8093E12DC7010E941F3A1093DD2D75
:1022D2003DC0C8010E94471839C08E010E5F1F4FD2
:1022E20084E0F80111928A95E9F741E050E0B801E3
:1022F200C7010E94E02D41E050E0BE016D5F7F4FBB
:10230200C7010E94E02D41E050E0BE016B5F7F4FAC
:10231200C7010E94E02DB8016E5F7F4F41E050E09F
:10232200C7010E94E02D9C818091262D98130EC03A
:102332009D818091272D981309C08091E12D8F7D79
:102342008093E12D03C087E08093DD2D8981809306
:10235200DE2D8091DD2D11C0DC24CD24DC2483E030
:102362008093DD2DC114D10409F4AACE97CE109228
:10237200DD2D83E08093DF2DE9CF2996CDBFDEBF2F
:10238200DF91CF911F910F91FF90EF90DF90CF904F
:022392000895AC
:10239400ACE0B0E0E0EDF1E10C9481366B017C013E
:1023A4004B015C018824B7FC83949924AA24BB24A0
:1023B400C40126013701E89477F820E542162CEA97
:1023C40052062EEA620622E47206D8F122E230E0D6
:1023D4002093002830930128E1E04E165104E0E8F0
:1023E4006E06EFE77E0608F00DC1F8E14F16F2E73E
:1023F4005F06F1EB6F06F2E47F0658F0892B59F47F
:1024040020E030E040E05FE7C701B6010E94303BC6
:1024140000C1892B09F1A701960161E070E080E019
:1024240090E80E942C3B6D837E838F83988725EBF5
:10243400421621EF52062FEC620622E4720660F087
:10244400E4C089E1481682E7580681EB68068EE30A
:10245400780608F459C01BC0C401880F991F880F5F
:10246400991F8C01085919442BE33AEA48EB5FE3BE
:10247400C701B6010E94303BF801208131814281BD
:1024840053810E94863A0E94A13A8B010FC023E92E
:10249400421625E1520625E862062FE37206E0F6AD
:1024A40001E010E00819190908191909B801012EE9
:1024B400000C880B990B0E9438302B013C0120E062
:1024C40032E741E35FE30E94303B9B01AC01C7016B
:1024D400B6010E94853AB62EA72E982E892E2EE894
:1024E4003EEB4FEB55E3C301B2010E94303B2B019D
:1024F4003C019B01AC016B2D7A2D892D982D0E94F6
:10250400853A6B017C0125C0F1E04F16510461044A
:10251400F9E37F06A8F420E030E040E05FE7C7017C
:10252400B6010E94863A69837A838B839C8320E078
:1025340030E040E85FE3C701B6010E94863A69C013
:10254400BC2CAD2C9E2C8F2C00E010E0412C512C87
:102554003201A7019601C701B6010E94303B698789
:102564007A878B879C8725E132E545E35BEB0E9404
:10257400303B2FE83AEA4AE25EE30E94863A298534
:102584003A854B855C850E94303B9B01AC01C701B9
:10259400B6010E94853A69877A878B879C879B015D
:1025A400AC01C701B6010E94303B6B017C01298557
:1025B4003A854B855C8560E070E080E090E40E94A1
:1025C400853A9B01AC01C701B6010E942C3BA301D3
:1025D40092010E94853A2B2D3A2D492D582D0E94A7
:1025E400863A20E030E040E85FE30E94863A011535
:1025F400110579F0A8016B017C01C701B6010E94A5
:102604003D2907C0B601C70104C060E070E080E066
:1026140090E06B017C01C701B6012C96E0E10C94BB
:02262400B236CC
:10262600A4E1B0E0E9E1F3E10C947F368F8398876B
:1026360069837A834B8B5C8B122FDB011296ED91AB
:10264600FC91139714962D913C9115972D833E83FB
:10265600CD90DC90119716962D903C901797F7FD2C
:1026660003C0E894C1F802C0E1E0F0E0C601807161
:10267600992789879A87C4FE1FC0AB89BC892C918C
:1026860011963C91119712964C91129713965C9164
:10269600139714966C91149715967C911597169628
:1026A6008C91169717969C91A0E00E941A3921F0FA
:1026B6008D819E81029702C08D819E819601287030
:1026C60033272B873C87C3FC0197AB89BC894C9089
:1026D60011965C90119712966C90129713967C90B7
:1026E600139714968C90149715969C90159716969A
:1026F600AC9016971796BC90A981BA811896ED9062
:10270600FC901997B1E0EB1AF108D101AE0DBF1D8F
:102716001C928B839C839F01281B390B2D873E8738
:10272600C601827099278F87988B812F012E000C06
:10273600990BDC01A154B109A98BBA8B32E0E316DF
:10274600F10434F489859A85892B09F04CC073C04D
:102756009201A301B401C501A0E00E941A3981F1DA
:10276600B1E0EB1AF108C2018F7099278A30910502
:1027760014F4C09602C0895A9F4FE989FA897A975C
:1027860048F49C012062215631092A31310510F4A2
:102796000E94063AF101EE0DFF1D80832B813C81DC
:1027A600215031092B833C839201A301B401C50159
:1027B60004E00E94903529013A014B015C01BECF2D
:1027C6008D859E85AB81BC818A0F9B1F18161906C5
:1027D6003CF21A161B060CF0B5CFEF85F889EF2BE5
:1027E60009F0BECFAFCFAB89BC892C9111963C9135
:1027F600119712964C91129713965C911397149613
:102806006C91149715967C91159716968C91169740
:1028160017969C91A0E00E941A3969F0F101EE0D1D
:10282600FF1D31971083B2E0EB1AF108F101EE0DAE
:10283600FF1D80E38083EB85FC85EF2B41F0F1E003
:10284600EF1AF108F101EE0DFF1D80E28083A981E8
:10285600BA8118964D915C911997415051094E19BC
:102866005F09B1016E0D7F1D86012D813E818F812D
:1028760098850E94E62A9C01EF81F88580819181E6
:1028860090FF09C0A981BA8112968D919C911397E8
:10289600821793070CF4C9016496E2E10C94B036F2
:1028A6004F925F926F927F928F929F92AF92BF925A
:1028B600FF920F931F93CF93DF9300D000D0CDB735
:1028C600DEB7F82EB62E29013A0120E030E0A90144
:1028D6006CE070E0CB010E94362F20E030E0A901C9
:1028E6006CE870E180E090E00E94362F20E030E056
:1028F600A9016CEA77E082E090E00E94362F21E0A1
:1029060030E040E050E068E171E180E090E00E9454
:10291600AF2E8111BFC020E034E040E050E060E01F
:1029260074E180E090E00E94AF2E8111B5C064E1B1
:1029360070E180E090E00E94F3339923C4F76CEBDA
:1029460077E082E090E00E94F33360FD19C00FEC5F
:1029560017E061E070E080E090E00E94C9356CE02D
:1029660070E0CB010E94F3336E39704D8D4A904171
:1029760021F00150110968F703C0012B09F48EC03C
:10298600FF2079F02DE735ED4CE15CE36CEA77E06A
:1029960082E090E00E94362F812C912C5401939472
:1029A6000DC0BB2039F0812C912C5401689487F816
:1029B600939404C0812C912C54019394A301920109
:1029C6006CE870E180E090E00E94362F0E941F1EA6
:1029D600DC01CB019F70AA27BB27803A9340A10553
:1029E600B10510F0689481F8A501940160EA74E1DC
:1029F60080E090E00E94362FAE014F5F5F4F60EAA5
:102A060074E180E090E00E941B38811109C0898141
:102A16009A81AB81BC8188169906AA06BB0621F766
:102A260021E63FE242E55FEE6CE070E0CB010E94FA
:102A3600362F00ED17E062E070E080E090E00E9443
:102A4600C935F11017C06CE870E180E090E00E9493
:102A5600F3336633764283459240B9F420E030E0A2
:102A6600A9016CE870E180E090E00E94362F0E9498
:102A7600523517C06CEA77E082E090E00E94F333AB
:102A8600633C714C8D45974D59F00150110999F6EB
:102A960080E007C080E005C080E003C080E001C0A0
:102AA60081E02496CDBFDEBFDF91CF911F910F91BC
:102AB600FF90BF90AF909F908F907F906F905F90A8
:042AC6004F90089590
:102ACA00EF92FF920F931F93CF93DF93CDB7DEB7A9
:102ADA006097CDBFDEBF7C0181E698E30E94E33AAE
:102AEA000E943C3B8C01B7018BE39DE20E94E537D3
:102AFA000E94AB32E091DB2D8E2F90E08B30910556
:102B0A0008F0CEC0FC01E85BFF4F0C94D83A0FEFF7
:102B1A0010E028E630EB42E06CE081E790EB0E949F
:102B2A00BD39882321F089E00E94A83AB9C081E022
:102B3A000E94A83AB5C00E94BF3764E375E381E1F9
:102B4A0097E20E94EB3984E00E94A83AA9C0D80112
:102B5A005096ED91FC91519780818F3F11F00E9420
:102B6A00892BF801E088F18840E061E082E090E09A
:102B7A000E943019D7018C93882321F089E00E94A2
:102B8A00A83A8EC082E090E089839A8387E09BE529
:102B9A008B839C838AE09CEBAAE0B0E88D839E83BA
:102BAA00AF83B887D8015096ED91FC91519740E1D7
:102BBA00BE016F5F7F4F80810E942D2888239CF47D
:102BCA00D8015096ED91FC91519780810E94892BF2
:102BDA00D8015096ED91FC9151978FEF808389E04F
:102BEA000E94A83A5DC085E00E94A83A59C0809127
:102BFA00DA2D882369F08091D82D8F5F8093D82DA4
:102C0A00833031F4C8010E94990A84E08093D82D58
:102C1A0087E00E94A83A8091DA2D8823E1F0109289
:102C2A00DA2DCE01019620E1FC0111922A95E9F7ED
:102C3A002EE234EB28873987EBE3FDE2ED87FE8746
:102C4A002AE02A8701900020E9F73197EB53FD42E9
:102C5A00EC870E941C23C8010E94D10FC8010E9460
:102C6A00990A88E00E94A83A1BC00E943C3B0E9435
:102C7A00D10F0E94423B8093D92D86E00E94A83A48
:102C8A000FC080E090E00E943F3A8FE59DE20E94EB
:102C9A0035378AE00E94A83A03C080E00E94A83A29
:102CAA0080E090E00E94573B6096CDBFDEBFDF9187
:0C2CBA00CF911F910F91FF90EF900895B3
:102CC6002F923F924F925F926F927F928F929F9236
:102CD600AF92BF92CF92DF92EF92FF920F931F9324
:102CE600CF93DF93CDB7DEB72C97CDBFDEBF962F40
:102CF6009F779A8389830115110539F0F701389674
:102D0600EC0DFD1DEB83FC8304C0F9013896EB83C3
:102D1600FC83EB81FC81ED33F64008F0ABC0360155
:102D2600680149015A01162F082F0E949836811111
:102D3600A3C02B813C81C901A0E0B0E0DC0199274A
:102D46008827802B9C01AD01312B2D833E834F8339
:102D560058876CE870E180E090E00E94362F22E010
:102D660030E040E050E068E770E180E090E00E94EB
:102D7600362F19861A861B861C8607EE13E0AE01CF
:102D86004B5F5F4F68E770E180E090E00E941B3880
:102D96000E944E3B882321F00E9466368FEF6DC05D
:102DA6008D8181FD0AC0AE01475F5F4F60E074E030
:102DB60085E190E00E941B380DC0053F81E01807B1
:102DC60030F461E070E080E090E00E94C935015087
:102DD6001109A8F60E944E3B811109C029843A8444
:102DE6004B845C84211431044104510421F40E9473
:102DF60066368DEF42C028E030E0AE014F5F5F4F90
:102E0600C201B1010E94772088E0280E311C411CC6
:102E1600511CA114B10431F09401A501C201B10104
:102E26000E947720C114D10451F0C201B101660D90
:102E3600771D811D911D9701A6010E947720898526
:102E46009A85AB85BC85880F991FAA1FBB1F880F63
:102E5600991FAA1FBB1F9C01AD0122606CE670E1A1
:102E660080E090E00E94362F0E9466360E944E3B1C
:102E7600819503C08FEF01C08FEF2C96CDBFDEBFCB
:102E8600DF91CF911F910F91FF90EF90DF90CF9040
:102E9600BF90AF909F908F907F906F905F904F9074
:062EA6003F902F900895FB
:102EAC008F929F92AF92BF92CF92DF92EF92FF924E
:102EBC000F931F93CF93DF938C01DC011696CD906B
:102ECC00DD90ED90FC901997C091B52DD091B62D59
:102EDC0014961D921C92159780919F2D9091A02D68
:102EEC00A091A12DB091A22DC816D906EA06FB0619
:102EFC0008F065C080909F2D9090A02DA090A12DE2
:102F0C00B090A22D8091D72D882329F10E94F23AFE
:102F1C00A0E0B0E040919B2D50919C2D60919D2D97
:102F2C0070919E2D84179507A607B70720F48FEF95
:102F3C009FEFA0E0B0E040919B2D50919C2D6091B3
:102F4C009D2D70919E2D841A950AA60AB70A880E9B
:102F5C00991EAA1EBB1E209791F0FE0186819781B7
:102F6C00A085B18588199909AA09BB09868397831D
:102F7C00A087B1870480F581E02D309779F7809197
:102F8C009F2D9091A02DA091A12DB091A22D8819CB
:102F9C009909AA09BB0980939F2D9093A02DA0930A
:102FAC00A12DB093A22DBFEFEB1AFB0AC818D908BC
:102FBC00EA08FB08F801C682D782E086F1862097E2
:102FCC0041F18E819F81A885B985C816D906EA067C
:102FDC00FB0658F41EC086819781A085B185C81662
:102FEC00D906EA06FB06C0F1EF01EC81FD813097B2
:102FFC0091F732C08091592D90915A2DD801149689
:10300C008D939C9315970093B52D1093B62D81E05D
:10301C002BC010929B2D10929C2D10929D2D1092D6
:10302C009E2D80E090E00E9432390E94BA3A809145
:10303C009B2D90919C2DA0919D2DB0919E2D0E9429
:10304C0032390E94BA3A8091B52D9091B62DBDE2DD
:10305C0085359B0799F6CECFD8011496ED93FC934A
:10306C0015970C831D8380E0DF91CF911F910F91F9
:10307C00FF90EF90DF90CF90BF90AF909F908F908C
:02308C000895A5
:10308E004F925F926F927F928F929F92AF92BF926A
:10309E00CF92DF92EF92FF920F931F93CF93DF9316
:1030AE00CDB7DEB7CC53D140CDBFDEBFBE016F5F13
:1030BE007F4F20E1DB011D922A95E9F7FE01719603
:1030CE0024E6DF011D922A95E9F7EC59FF4F28EC13
:1030DE00DF011D922A95E9F78C01085F1F4F41E031
:1030EE0050E0C8010E94E02D41E050E0BE016E5F4D
:1030FE007F4FC8010E94E02D8A818823ACF47E01A7
:10310E00B3E0EB0EF11C5E01E6E0AE0EB11C41E049
:10311E0050E0B701C8010E94E02DF7018081FFEF5A
:10312E00EF1AFF0A88236CF0FE013296412C512CC7
:10313E003201C12CD12C7601C394812C912C5401D7
:10314E0004C0EA14FB0419F7EFCFA191AF77B0E0FA
:10315E00A70196010E946939460E571E681E791EF8
:10316E00CC0CDD1CEE1CFF1CCC0CDD1CEE1CFF1C65
:10317E00CC0CDD1CEE1CFF1CCC0CDD1CEE1CFF1C55
:10318E00CC0CDD1CEE1CFF1CCC0CDD1CEE1CFF1C45
:10319E00CC0CDD1CEE1CFF1C8FEF881A980AA80AB7
:1031AE00B80A99F2DF0111978C91882374F242E0EC
:1031BE0050E0BE016A5F7F4FC8010E94E02DBE0144
:1031CE006F5E7F4F688779874E815F8154274527D1
:1031DE005427C8010E94E02D8E819F819827892750
:1031EE0098274EEF5FEF6FEF7FEF481B590B61098A
:1031FE007109440D551D661D771DCE018B589F4FCD
:10320E008D879E87BC01C8010E94E02D0E94E83A7E
:10321E00FC01892B29F06D857E8588859985099518
:10322E00C8010E941F3A83E0C45CDE4FCDBFDEBFF3
:10323E00DF91CF911F910F91FF90EF90DF90CF9084
:10324E00BF90AF909F908F907F906F905F904F90B8
:02325E000895D1
:10326000FF920F931F93CF93DF9300D000D0CDB781
:10327000DEB7029709F0B5C0613009F044C0209173
:10328000EE2D022F10E0C801019667E070E00E9469
:1032900071378093EE2D9BE0909FF001919FF00D90
:1032A0001124EE5DF34D9085911109C08BE0809F54
:1032B000F001819FF00D1124EE5DF34D1BC0282F0E
:1032C00036E00F2EFBE0FF2EF02D07E010E0822FFE
:1032D00090E0F89EF001F99EF00D1124EE5DF34DA3
:1032E0000196B8010E947137582F9085911104C042
:1032F0005093EE2D122F45C03150282F41F7509397
:10330000EE2D1FEF3EC0623009F06DC02091ED2D13
:10331000822F90E03BE0239FF0011124E159F34D0F
:10332000019683709078992324F401978C6F9F6F96
:1033300001968093ED2D30853323D1F0282F33E093
:103340006BE0822F90E0689FF001699FF00D1124DF
:10335000E159F34D019683709078992324F40197F5
:103360008C6F9F6F01965085511105C08093ED2D94
:1033700017E0120F06C03150282F19F78093ED2D5A
:103380001FEF309789F18BE0DF011D928A95E9F7F5
:1033900081E080878091D52D9091D62D9C012F5F63
:1033A0003F4F29F02093D52D3093D62D05C002969E
:1033B0008093D52D9093D62D8091D52D9091D62D9B
:1033C0008483958340FF10C0198381E2818724E0C4
:1033D00030E0AE014F5F5F4F60E582E00E94203732
:1033E00003C01FEF01C01FEF812F2496CDBFDEBFAA
:0C33F000DF91CF911F910F91FF90089585
:1033FC00ADE0B0E0E4E0FAE10C947F3689879A877F
:10340C006B837C83FA01DB011296CD90DC901397D1
:10341C0014968D919C9115978D839E83ED90FC90C5
:10342C001197E982FA8216960D90BC91A02DAF836C
:10343C00B88720803180428053806480758086807C
:10344C0097808101B42DF52DE62D7B868C869D868B
:10345C009101A201B301C401A0E00E941A394CF4FD
:10346C000E9471388901B42FF52FE62F7B878C874A
:10347C009D87D7FC04C0E894E1F8E982FA829101B7
:10348C00A201B301C401A0E0ED80FE800E941A39B4
:10349C001CF0898182FF04C081E0E81AF10805C0A4
:1034AC0083FF03C091E0E91AF108CE0101965C019B
:1034BC008AE0C82ED12C2B2F3F2F4E2F5B856C858D
:1034CC007D858B819C810E94DC1CFC019101A201F9
:1034DC00B301C401A0E00E941A391CF0898182FF5B
:1034EC0012C031970F8118850E0F1F1F9101A20179
:1034FC00B301C401A0E00E941A3914F08BE201C0A0
:10350C008DE2D80108C083FF07C03197AF81B88521
:10351C00AE0FBF1F80E28C9309811A81AB81BC81F5
:10352C0018964D915C911997415051094E1B5F0BA8
:10353C006F8178856E0F7F1F2D813E8189859A85DD
:10354C000E94E62A9C01E985FA858081918190FF91
:10355C0009C0AB81BC8112968D919C9113978217F7
:0E356C0093070CF4C9012D96E2E10C94B036E1
:10357A000F931F93CF93DF93FC01D901683871052C
:10358A0031F194F461387105B1F12CF460387105A8
:10359A0009F478C09FC06238710509F459C06438CB
:1035AA00710509F46FC096C0603A710509F448C004
:1035BA002CF46039710509F44BC08CC0603C71056C
:1035CA0009F476C0603F710509F472C083C0CD91D9
:1035DA00DC911197CE0102968D939C93452B39F07D
:1035EA009881892F880F880B908381835BC088819B
:1035FA008083118268C0CD91DC911197CE01049627
:10360A008D939C93452B99F088819981AA81BB81DE
:10361A00AC01BD01770F440B542FBA01808391830B
:10362A00A283B383448345834683478328C00881A2
:10363A0019812A813B81008311832283338345C008
:10364A00CD91DC911197CE0102968D939C9323C064
:10365A00CD91DC911197CE0108968D939C93788138
:10366A0069815A814B813C812D819E818F81708332
:10367A00618352834383348325839683878381E0DE
:10368A0090E02AC0CD91DC911197CE0102968D93DC
:10369A009C93452BA1F099812881892F880F880B4B
:1036AA002083918382838383848385838683E6CF81
:1036BA00CD91DC911197CE0102968D939C9308814E
:1036CA001981008311831282138214821582168251
:1036DA001782D5CF80E090E0DF91CF911F910F91B3
:0236EA00089541
:1036EC001F93CF93DF93CDB7DEB72897CDBFDEBF47
:1036FC000E947E3A182F882309F4A0C0AE014F5FB8
:10370C005F4F60E770E180E090E00E941B38811110
:10371C0084C089819A81AB81BC8180FF80C09C016F
:10372C00AD012E7F29833A834B835C8360E770E184
:10373C0080E090E00E94362F811173C089819A81BC
:10374C00AB81BC81B695A79597958795B695A795AE
:10375C00979587959F708093CB2D9093CC2D892B2B
:10376C0009F461C04BEA5DE264E870E180E090E04E
:10377C000E941B38811159C06091AB2D7091AC2DFA
:10378C008091AD2D9091AE2D24E030E0AE014B5FD9
:10379C005F4F0E94E328182F811149C06F817885F3
:1037AC008091CB2D9091CC2D861B970B059708F013
:1037BC0040C0ED818FEF8E0F8730E8F58091AB2DF7
:1037CC009091AC2DA091AD2DB091AE2D9C01AD0181
:1037DC00285F3F4F4F4F5F4F68507109F0E0EE0F7D
:1037EC00FF1FE451FB440190F081E02D8E8109957F
:1037FC0081E00E94E03622E030E040E050E060E7FB
:10380C0070E180E090E00E94AF2E80E00E94E036F4
:10381C000E944E3B882391F010C014EF0FC014EFA0
:10382C000DC014EF0BC01EEF09C014EF07C014EF4E
:10383C0005C01AEF03C014EF01C014EF812F2896B6
:0C384C00CDBFDEBFDF91CF911F9108952A
:103858000F931F93CF93DF93CDB7DEB72897CDBFD4
:10386800DEBF182F0E941F1EDC01CB019F70AA2704
:10387800BB27803A9340A105B10508F48BC0AE017F
:103888004B5F5F4F60E174E180E090E00E941B387D
:10389800082F811181C08D819E81AF81B8859F7865
:1038A800A878B87F9C01AD013061416151602D83DA
:1038B8003E834F83588760E174E180E090E00E9486
:1038C800362F20E030E0A90168E072E081E090E066
:1038D8000E94362F112359F02BEA30E040E050E0E7
:1038E8006CE072E081E090E00E94362F0AC029EB7C
:1038F80030E040E050E06CE072E081E090E00E944F
:10390800362F21E030E040E050E064E172E081E0F1
:1039180090E00E94362F20E030E0A9016CE172E0CF
:1039280081E090E00E94362F21E830E040E050E04E
:1039380064E072E081E090E00E94362F0E944E3BE6
:1039480081112CC0AE014F5F5F4F68E172E081E0EA
:1039580090E00E941B38811108C089819A81AB814F
:10396800BC810197A105B10569F78D819E81AF8161
:10397800B8859F78A878B87F9C01AD0141602D83F8
:103988003E834F83588760E174E180E090E00E94B5
:10399800362F05C000E003C004EF01C004EF802FFC
:1039A8002896CDBFDEBFDF91CF911F910F9108956B
:1039B800A2E1B0E0E2EEFCE10C947F36FC010A8B58
:1039C8001B832C83732E642E552E462E7D83CC8626
:1039D800D886AE82BF82868197818A879B87D501E8
:1039E8004D915C91228133818085918501971C01DD
:1039F80037FF02C021E030E0EA85FB85E80FF91FB8
:103A080010824701E1E0F0E0E983FA83C9018E19E9
:103A18009F098D879E87DA01A270BB27AF87B88B75
:103A2800B885BB0FBB0BB98B1214130474F0A981B2
:103A3800BA81AB2B09F05CC0AE81BF818D919C919E
:103A480011978F7E8D939C9353C02A893B814C811B
:103A5800572D662D752D842D9D81A0E00E941A3961
:103A6800B1F1E1E02E1A3108FC85F987AF2EB88450
:103A7800C988DC2CEC2CFC2C0C2D1C2D2A893B81B4
:103A88004C81572D662D752D842D9D810E94DA3825
:103A9800C90129839A83EA85FB85E20DF31D805DC0
:103AA800808381E0881A91082A893B814C81572DAF
:103AB800662D752D842D9D810E94DC382A8B3B83D1
:103AC8004C83752E662E572E482E9D83ADCF8D853F
:103AD8009E85880D991D181619061CF218141904CC
:103AE8000CF0A5CFEF85F889EF2B09F0BACF9FCF5F
:0A3AF800C1016296E2E10C94B036C1
:103B0200A5E1B0E0E7E8FDE10C947F3647015801FA
:103B12000E94303B2B013C01A80197010E94863A8A
:103B2200162FC72ED82EF92E862F9C2DAD2DBF2DE8
:103B320089839A83AB83BC83AA81FB81EC81ED806C
:103B42003E802F8008850D8B5E2F5F71212F3A2FCB
:103B52004F2F60E070E080E090E0211531054105D3
:103B620000E15007610571058105910509F05EC00C
:103B72005E2F6E2D732D822D9D8904E30E94903558
:103B82002D873E874F87588B698B7A8B8B8B9C8BCB
:103B92008D859E8597708F3F974009F447C0A3019A
:103BA2009201612F7C2D8D2D9F2D0E94853A9B01C4
:103BB200AC01C501B4010E94013B8823B9F14986D9
:103BC2005A866B867C8629853A854B855C85C5013C
:103BD200B4010E94863AB62E872E982EA92E262F41
:103BE200372F482F592F612F7C2D8D2D9F2D0E940D
:103BF200013B811118C02B2D8B2D982DA92DBA2D8B
:103C020089839A83AB83BC833A814B815C816E2D1D
:103C1200732D822D9D89A1E00E942639122FC32E79
:103C2200D42EF52E03C01B2D6401FA2C612F7C2D9E
:0C3C32008D2D9F2D6596E2E10C94B036BC
:103C3E00CF92DF92EF92FF92CF93DF9300D000D01E
:103C4E00CDB7DEB7C090A72DD090A82DE090A92DAE
:103C5E00F090AA2DC114D104E104F10409F078C04A
:103C6E00AE014F5F5F4F64EF73E180E090E00E9422
:103C7E001B3881116DC047EA5DE260E070E180E0C3
:103C8E0090E00E941B38811163C08091A72D909106
:103C9E00A82DA091A92DB091AA2D803A22E09207CD
:103CAE0020E1A207B105A9F489819A81AB81BC817B
:103CBE000197A105B105C1F181EA92E0A0E1B0E062
:103CCE008093A72D9093A82DA093A92DB093AA2DE4
:103CDE002BC0803B9240A041B10531F589819A817C
:103CEE00AB81BC8183309105A105B105E9F0049744
:103CFE00A105B10569F481EB92E0A0E1B0E08093FB
:103D0E00A72D9093A82DA093A92DB093AA2D0CC0EA
:103D1E0082EB92E0A0E1B0E08093A72D9093A82DC6
:103D2E00A093A92DB093AA2DC090A72DD090A82D09
:103D3E00E090A92DF090AA2D80EFE82225E0E22A4E
:103D4E00C092A72DD092A82DE092A92DF092AA2D67
:103D5E00C701B6012496CDBFDEBFDF91CF91FF9094
:083D6E00EF90DF90CF90089563
:103D76008F929F92AF92BF92FF920F931F93CF9312
:103D8600DF93CDB7DEB7CC56D109CDBFDEBFF82E57
:103D960049015A0180919B2C8E3309F442C0F816D2
:103DA60031F00BE91CE237C08F1135C002C00BE9B8
:103DB6001CE2D80111962D913C91129721153105DF
:103DC60009F45BC0AE014F5F5F4FC501B4010E94AD
:103DD600782F811159C0E091CD2DF091CE2D3097DD
:103DE60001F1D80111968D919C911297892B71F052
:103DF600B1E1FB1205C01092EA2D89818093EC2D6A
:103E0600BE016F5F7F4F8F2D09950BC060E070E09C
:103E16008F2D099506C00D5F1F4FF80180818E33E7
:103E260019F6F0E2FF1230C028E030E0AE014B593F
:103E36005F4FC501B4010E94782F811125C0AB9652
:103E46002EAD3FADAB97A7964EAD5FADA797C5011B
:103E5600B401685F7F4F8F4F9F4F0E94782F81116B
:103E660013C0E091CD2DF091CE2D309769F0BE01B3
:103E76006B597F4F80E2099507C0E091CD2DF091F7
:103E8600CE2D309771F2C2CFC459DF4FCDBFDEBF02
:103E9600DF91CF911F910F91FF90BF90AF909F90B0
:043EA6008F9008955C
:103EAA004F925F926F927F928F929F92AF92BF9240
:103EBA00CF92DF92EF92FF92CF93DF93CDB7DEB727
:103ECA002897CDBFDEBF6B017C01DC01CB0147E146
:103EDA00B695A795979587954A95D1F799278F57BC
:103EEA009109873191059CF597FD36C088248A94FB
:103EFA00982C3FE7A32EB12C04C0B594A7949794AD
:103F0A0087948A95D2F7D501C4018C219D21AE21CF
:103F1A00BF21892B8A2B8B2BD1F020E030E040E89F
:103F2A005BE7C701B6010E94863A6D837E838F8361
:103F3A009887F7FE04C0C80CD91CEA1CFB1C8094A5
:103F4A009094A094B094C820D920EA20FB205C2D3C
:103F5A004D2D3E2D2F2D21C020E030E040E85BE7BB
:103F6A00C701B6010E94863A69837A838B839C8350
:103F7A00F7FE0FC0D701C601880F991FAA1FBB1FE2
:103F8A00892B8A2B8B2B19F350E040E030E82FEB7A
:103F9A0004C050E040E030E020E0652F742F832F0A
:103FAA00922F2896CDBFDEBFDF91CF91FF90EF9081
:103FBA00DF90CF90BF90AF909F908F907F906F903F
:063FCA005F904F90089586
:103FD0000F931F93CF93DF930E94083240E054E089
:103FE00082EDFA01808320E234E0F901108280E45E
:103FF00094E0FC011082C0E6D4E06FE06883A0E8A2
:10400000B4E01C9200EA14E078E1F801708370E8F3
:10401000FA017483F9011482FC0114826C831496F2
:104020001C921497F8011482FA01108A118A128ADC
:10403000138A148A158A168A178AF901108A118A36
:10404000128A138A148A158A168A178AFC01108A22
:10405000118A128A138A148A158A168A178A188A6C
:10406000198A1A8A1B8A1C8A1D8A1E8A1F8A5096E0
:104070001C92509751961C92519752961C925297AF
:1040800053961C92539754961C92549755961C9293
:10409000559756961C92569757961C92F801108A7F
:1040A000118A8BE0828B138A148A158A168A178AE2
:1040B000E0EEF5E0118210821482158213821282E2
:1040C0008CE69BE38093C92D9093CA2D8DE69BE3EC
:1040D0008093C72D9093C82D8EE69BE38093C52DCA
:0E40E0009093C62DDF91CF911F910F910895FF
:1040EE007F928F929F92AF92BF92CF92DF92EF927A
:1040FE00FF920F931F93CF93DF93CDB7DEB7289721
:10410E00CDBFDEBF6A018901FE01319697E0DF0166
:10411E001D929A95E9F797EC99839091E52D91115F
:10412E0049C091E09093E52D2130310511F402E064
:10413E0010E08A837B836C831E830F8367E0CE013E
:10414E0001960E940B37B82E811137C081EF8887F8
:10415E0001151105D9F1712C6894882485F80F2E5C
:10416E00F3EF9F2EF02D0F2EF2EFAF2EF02D7801E4
:10417E000130B0E21B0710F0E72CF82C0E191F09C6
:10418E0009F4988661E070E0CE0108960E94ED2950
:10419E008823C9F0B701C6010E94ED29882399F042
:1041AE00A886CE0CDF1C0115110509F70FC0109261
:1041BE00E52D12C0BB24B3940FC0BB24B3940CC026
:1041CE00BB24B39409C0BB24B39406C083EC0E94F5
:1041DE007632882361F3F4CF8B2D2896CDBFDEBFC8
:1041EE00DF91CF911F910F91FF90EF90DF90CF90C5
:0C41FE00BF90AF909F908F907F9008952D
:10420A00CF93DF93EC01EEEEFCE28DE1DF011D922C
:10421A008A95E9F790819F709061908384E0868304
:10422A009DE4978391E5908794E5918792878387A8
:10423A008F89988D892B21F48B899C89892B21F070
:10424A0082EC8093FA2C03C082E08093FA2C4EEE23
:10425A005CE28D859E85982789279827FA018587AC
:10426A009687A989BA89A18BB28BFD01019000209A
:10427A00E9F79F01215031092A1B3B0BDA011F96EE
:10428A002D933C9350974091FA2C46FF09C0898D93
:10429A009A8DFD01818F928F8F89988D878B908F50
:1042AA00442394F48D899E89EEEEFCE2858B968BED
:1042BA006B897C89638B748B8789908D860F971F96
:1042CA000496820F931F01C0C9010C968093092D91
:1042DA0090930A2D407C81F0EEEEFCE28789908D66
:1042EA00982789279827878B908F8389948998277D
:1042FA0089279827838B948B322723273227209369
:10430A00FD2C3093FE2C81E08093E22D8093DD2DED
:06431A00DF91CF91089530
:10432000CF92DF92EF920F93CF93DF93CDB7DEB7AB
:104330002B97CDBFDEBFDC01690119821A828B8306
:104340009C836D830E83E11002C082E001C080E097
:10435000613248F00CC0FD01E60FF11D9081911112
:1043600003C0362F01C0362F6150A8F73D8342307D
:1043700081F018F4413039F048C0433059F14430ED
:1043800009F43FC042C0BE016F5F7F4F0E94AF344F
:1043900043C0C114D104D9F11F82188619861A8628
:1043A0001B86F60101900020E9F73197EC19FD0911
:1043B000E034F10519F4CF82D88603C0C986DA86C5
:1043C000EB87AE01495F5F4FBE016F5F7F4F0E9479
:1043D0009A2322C0C114D104E1F096012E5F3F4F11
:1043E0002F833887F60191819150998790819A8720
:1043F000AE01495F5F4FBE016F5F7F4F0E94702724
:104400000BC0CD2841F084EF07C081EF05C081EFDC
:1044100003C081EF01C081EF2B96CDBFDEBFDF91DE
:0C442000CF910F91EF90DF90CF900895A6
:10442C00CF92DF92EF92FF920F931F93CF93DF9374
:10443C00CDB7DEB72897CDBFDEBF88230CF45FC0A5
:10444C006115710509F45DC04115510509F45BC096
:10445C00A82F082E000CBB0B9BE08902F001112445
:10446C00EE5DF34D9085992309F44FC09BE09A9F24
:10447C00F0019B9FF00D1124EE5DF34D6083718371
:10448C00428353839285911142C09BE09A9FF00125
:10449C009B9FF00D1124EE5DF34D91E09287918579
:1044AC0090FF02C06DE401C066E401151105210501
:1044BC00310549F4CC24CA94DC2C7601C982DA8209
:1044CC00EB82FC8204C009831A832B833C838D838B
:1044DC008BE08A9FF0018B9FF00D1124EE5DF34D64
:1044EC00848195818F83988728E030E0AE014F5FFF
:1044FC005F4F82E00E942037882361F00AC08AEF68
:10450C0009C08AEF07C08AEF05C08AEF03C080E0BC
:10451C0001C082EF2896CDBFDEBFDF91CF911F91F6
:0C452C000F91FF90EF90DF90CF9008956A
:10453800CF92DF92EF92FF920F931F93CF93DF9367
:10454800CDB7DEB76097CDBFDEBF88230CF45BC064
:104558006115710509F459C0493795E0590708F004
:1045680056C0282F082E000C330B9BE08902F0015F
:104578001124EE5DF34D9085992309F44AC089838F
:104588004B835C839BE0929FF001939FF00D112475
:10459800EE5DF34D0480F581E02DED87FE878730D1
:1045A80034F00F2EF4E4CF2ED12CF02D05C00F2EB1
:1045B800F0E5CF2ED12CF02D8BE0829FF001839F68
:1045C800F00D1124EE5DF34D818580FF0CC08BE06A
:1045D800829FF001839FF00D1124EE5DF34DC6809C
:1045E800D7808CE401C085E47A018B01682F60686C
:1045F80020E130E0AE014F5F5F4F82E00E9463161A
:10460800882351F008C08AEF07C08AEF05C08AEFF7
:1046180003C08AEF01C082EF6096CDBFDEBFDF9195
:10462800CF911F910F91FF90EF90DF90CF90089559
:10463800CF93DF93FC0180E1ADE1BDE2ED0119927A
:104648008A95E9F78091DD2D833009F06BC09C9144
:104658009F7090639C93808183FB882780F980FBFF
:1046680093F99C9380818670997F982B9C939E7078
:10467800983019F48C91877F8C939081ADE1BDE2DD
:104688008C9190FB80F98C938781908517968D93F8
:104698009C93189727813085E90109900020E9F754
:1046A800CE010197821B930B15968D939C931697B9
:1046B80020812695237071F0218519962C931997DE
:1046C80022851A962C931A9722E030E01E962D9395
:1046D8003C931F9724853585ADE1BDE21C962D934B
:1046E8003C931D9743851B964C931B971E962D91C3
:1046F8003C911F972E5F3F4F240F311D280F391F04
:104708001E962D933C931F979827892798271596CF
:104718008D939C9316978091E22D84608093E22D6F
:0C47280081E001C080E0DF91CF91089596
:10473400CF92DF92EF92FF920F931F93CF93DF9369
:10474400CDB7DEB7CC59D109CDBFDEBF4115510578
:1047540009F452C07A019B018E0103591F4F4CE6A4
:1047640050E062E00E941824811153C0FE0131968A
:104774008CE6DF011D928A95E9F7F701608171816A
:104784006115710571F082819381892B79F580E43B
:10479400898340E2CE0102960E94F72F811138C02E
:1047A4002DC0628173816115710511F14481413419
:1047B40008F5498350E0CE0102960E948A390F2EF3
:1047C400F0E3CF2ED12CF02D0F2EFCE6EF2EF12CA2
:1047D400F02D8E010F5F1F4F20E330E0AE014359EF
:1047E4005F4F6BEB81E00E94631613C081EF11C031
:1047F40081EF0FC081EF0DC081EF0BC0498150E004
:10480400F70160817181CE0102960E948A39D7CF67
:1048140081EFC456DF4FCDBFDEBFDF91CF911F9133
:0C4824000F91FF90EF90DF90CF9008956F
:104830000F931F93CF93DF93F901D801445D5F4F2E
:10484000309709F459C022813381232B09F456C0D3
:104850009481913208F054C0109709F453C090E34A
:10486000E80119929A95E9F74D935C93119781307D
:1048700059F088F0823009F047C012968C91129757
:10488000826012968C93129712968C911297816087
:1048900012968C93129785818F3F21F413968C93F7
:1048A000139706C081508E3088F513968C9313971A
:1048B0008FEF860F843060F5ED018F016CA7848146
:1048C0008C83448150E062817381CD0105960E9402
:1048D0008A39F80180819181892BE1F081E08DA3F3
:1048E000DE0196960190F081E02D86E001900D9218
:1048F0008A95E1F780E00FC081EF0DC081EF0BC01A
:1049000081EF09C084EF07C081EF05C081EF03C0CC
:1049100081EF01C080E0DF91CF911F910F91089549
:1049200010C00E94933A58F00E948C3A40F029F44B
:104930005F3F29F00C94D23A51110C949B3A0C949D
:104940005A3B0E94D23468F39923B1F3552391F373
:10495000951B550BBB27AA2762177307840738F0EE
:104960009F5F5F4F220F331F441FAA1FA9F335D04B
:104970000E2E3AF0E0E832D091505040E695001CFF
:10498000CAF72BD0FE2F29D0660F771F881FBB1FB9
:10499000261737074807AB07B0E809F0BB0B802D97
:1049A000BF01FF2793585F4F3AF09E3F510578F0C3
:1049B0000C94D23A0C949B3A5F3FE4F3983ED4F3C4
:1049C000869577956795B795F7959F5FC9F7880F97
:1049D000911D9695879597F90895E1E0660F771FE9
:1049E000881FBB1F621773078407BA0720F0621B7A
:0E49F000730B840BBA0BEE1F88F7E095089549
:1049FE000F931F930E94B43AE091B52DF091B62D0E
:104A0E00309719F40E94F6365CC040919F2D50915C
:104A1E00A02D6091A12D7091A22D86819781A085E8
:104A2E00B185841B950BA60BB70B009701E0A00771
:104A3E00B10500F140919F2D5091A02D6091A12DB7
:104A4E007091A22DA5E5BDE2415051096F4F7F4FE8
:104A5E0016964D935D936D937C9319971496ED93E3
:104A6E00FC931597A093B52DB093B62D8FEF9FEFB6
:104A7E00A0E0B0E04FEF5FEF60E070E08A019B01D5
:104A8E00081B190B2A0B3B0B00939B2D10939C2D8F
:104A9E0020939D2D30939E2D80E090E00E94323920
:104AAE000E94BA3A80919B2D90919C2DA0919D2DA4
:104ABE00B0919E2D0E9432390E94AE3A81E08093D1
:084ACE00D72D1F910F910895EF
:104AD600CF93DF93DC01F90164387105D9F164F4F1
:104AE6006138710521F16238710509F440C06038FA
:104AF600710509F054C02EC060397105C1F184F406
:104B06006838710509F04BC0C081D181CE0102968B
:104B160080839183E881F981ED93FC9340833CC0C7
:104B2600603A7105B9F0603C7105A1F038C0C081EA
:104B3600D181CE01029680839183E881F981ED933C
:104B4600FC93052E000C660B770B40835183628322
:104B5600738322C0C081D181CE0102968083918366
:104B6600E881F981ED93FC934083518315C0C081A0
:104B7600D181CE01029680839183E881F981ED93FC
:104B8600FC9340835183852F880F880B8283838310
:104B9600848385838683878381E090E002C080E0FA
:084BA60090E0DF91CF9108952A
:104BAE000FC00E948C3A38F00E94933A20F0952361
:104BBE0011F00C94D23A0C945A3B11240C949B3A5B
:104BCE000E94D23470F3959FC1F3950F50E0551F9C
:104BDE00629FF001729FBB27F00DB11D639FAA2744
:104BEE00F00DB11DAA1F649F6627B00DA11D661F93
:104BFE00829F2227B00DA11D621F739FB00DA11DB4
:104C0E00621F839FA00D611D221F749F3327A00D6D
:104C1E00611D231F849F600D211D822F762F6A2F09
:104C2E0011249F5750409AF0F1F088234AF0EE0F6E
:104C3E00FF1FBB1F661F771F881F91505040A9F79B
:104C4E009E3F510580F00C94D23A0C949B3A5F3FF4
:104C5E00E4F3983ED4F3869577956795B795F795D7
:104C6E00E7959F5FC1F7FE2B880F911D969587954F
:044C7E0097F9089505
:104C8200A2E0B0E0E7E4F6E20C947F361C014B01AF
:104C9200FA01DB0112962D913C91139714964D90D7
:104CA2005C9015978D919C91119789839A831696A2
:104CB2006D907C90179737FD03C08D7F89839A830F
:104CC20000811181228133814481558166817781FE
:104CD200FE0131965F0188E0C82ED12C7201C40119
:104CE2000E94DC1C298124FF06C00197F301E80F12
:104CF200F91F20E32083298123FF06C00197F301D6
:104D0200E80FF91F20E2208309811A81D401189645
:104D12004D915C91199741505109481B590BB301B0
:104D2200680F791F9201C1010E94E62A9C01F101DC
:104D32008081918190FF08C0D40112968D919C913F
:104D42001397821793070CF4C9012296E2E10C949F
:024D5200B03679
:104D540011C00E948C3A38F00E94933A20F039F442
:104D64009F3F19F426F40C945A3B0EF4E095E7FBAC
:104D74000C94D23AE92F0E94D23458F3BA1762073E
:104D840073078407950720F079F4A6F50C949A3AF2
:104D94000EF4E0950B2EBA2FA02D0B01B901900152
:104DA4000C01CA01A0011124FF27591B99F0593F96
:104DB40050F4503E68F11A16F040A22F232F342FDE
:104DC4004427585FF3CF469537952795A795F0402C
:104DD4005395C9F77EF41F16BA0B620B730B840B41
:104DE400BAF09150A1F0FF0FBB1F661F771F881FF9
:104DF400C2F70EC0BA0F621F731F841F48F4879551
:104E040077956795B795F7959E3F08F0B0CF939542
:0E4E1400880F08F09927EE0F9795879508955F
:104E2200FF920F931F93CF93DF93F82EEA01663020
:104E320051F1673009F444C0653009F04AC00E945C
:104E42003C3B8C01209789F08981882374F086E0AD
:104E52000E94A83A00E010E0980140E051E062E9C7
:104E620079E28F2D0E94162234C089E00E94A83A6E
:104E7200D8015096ED91FC9151978FEF80838F2D41
:104E82000E94892B26C00E943C3B8C01209751F046
:104E92006A817B81161617062CF4888199810E94FB
:104EA200493717C089E00E94A83AD8015096ED917F
:104EB200FC9151978FEF80838F2D0E94892B09C01F
:104EC20000E010E0980140E051E062E979E20E94DE
:0E4ED2001622DF91CF911F910F91FF9008954E
:104EE000CF92DF92EF92FF920F931F93CF93DF93B6
:104EF000CDB7DEB7C054D109CDBFDEBFFA013097C0
:104F0000D1F120813181232BC1F1938191509430D3
:104F1000B0F592819F7E9A30A1F57A019B018E01B6
:104F20000F5F1F4F40E150E063E00E9418248111A1
:104F300029C0F7018381815089AB428146954AABF4
:104F400060817181CE01C3960E94F72F0F2EF0E38E
:104F5000CF2ED12CF02D6894EE24E4F8F12C005DD6
:104F60001F4F20E330E0AE014F5F5F4F6BEB81E0FE
:104F70000E94631607C081EF05C081EF03C081EF77
:104F800001C081EFC05CDF4FCDBFDEBFDF91CF91AD
:0E4F90001F910F91FF90EF90DF90CF9008954A
:104F9E00FF920F931F93CF93DF93CDB7DEB72C976E
:104FAE00CDBFDEBF6115710509F440C08B01F82E2F
:104FBE0086E2FB0111928A95E9F7AE01475F5F4FDA
:104FCE0068E070E08CE090E00E941B38811134C0E4
:104FDE0089859A85AB85BC850097A105B10561F1E0
:104FEE00BC01CD01836028E030E0AE014F5F5F4F22
:104FFE000E94E328811120C08D819E81AF81B885EA
:10500E00AA27BB270097A105B10591F0F11003C0A7
:10501E0080E090E0DC01BC01CD01836026E230E04F
:10502E00A8010E94E328882341F004C081EF05C047
:10503E0084EF03C084EF01C084EF2C96CDBFDEBF9A
:0C504E00DF91CF911F910F91FF9008950A
:10505A00CF93DF93CDB7DEB72C97CDBFDEBFFB0171
:10506A0088230CF442C0309709F441C0282F082E37
:10507A00000C330B9BE08902D0011124AE5DB34DC5
:10508A0018969C919923A9F14423A9F19BE0929F38
:10509A00D001939FB00D1124AE5DB34D19969C912A
:1050AA0090FF03C09A876BE401C064E4898788E0B3
:1050BA00DE01119601900D928A95E1F78BE0829FAD
:1050CA00F001839FF00D1124EE5DF34D84819581EB
:1050DA008B879C872CE030E0AE014F5F5F4F82E008
:1050EA000E942037882351F008C08AEF07C08AEF50
:1050FA0005C08AEF03C08AEF01C087EF2C96CDBFA7
:08510A00DEBFDF91CF91089593
:10511200CF92DF92EF92FF92CF93DF93EC016A017D
:105122007B010E9435370E94B43A80919F2D909165
:10513200A02DA091A12DB091A22DC80ED91EEA1EBC
:10514200FB1E8091D72D882329F10E94F23AA0E01C
:10515200B0E040919B2D50919C2D60919D2D7091BE
:105162009E2D84179507A607B70720F48FEF9FEFB0
:10517200A0E0B0E040919B2D50919C2D60919D2D1F
:1051820070919E2DC41AD50AE60AF70AC80ED91ED6
:10519200EA1EFB1ECE82DF82E886F986CE010E94DD
:1051A2005617882319F00E94FF2405C08091D72D3D
:1051B20081110E94AE3ADF91CF91FF90EF90DF9084
:0451C200CF900895ED
:1051C600EF92FF920F931F93CF93DF93CDB7DEB786
:1051D6002997CDBFDEBFFE01339697E0DF011D9212
:1051E6009A95E9F798EC9B839091E52D911131C042
:1051F60089017A0191E09093E52D8C837D836E83FE
:105206002130310549F482E0898767E0CF010E94A9
:105216000B37882359F01FC01887298767E0CE010E
:1052260003960E940B37882359F017C062E070E09E
:10523600CE0101960E943F329981F701908304C006
:10524600B801C7010E943F32811109C01092E52DB5
:1052560007C081E005C081E003C081E001C081E0B4
:105266002996CDBFDEBFDF91CF911F910F91FF90A1
:04527600EF90089518
:10527A000F931F93CF93DF93EA0140385105D4F07F
:10528A0020E030E040E05FE70E94303B9E012F576C
:10529A003109203831056CF120E030E040E05FE769
:1052AA000E94303BCE5FD109C038D1051CF1CFE74F
:1052BA00D0E020C042385F4FECF420E030E040E814
:1052CA005CE00E94303B9E012A593F4F22384FEF43
:1052DA0034077CF420E030E040E85CE00E94303B98
:1052EA00C453DF4FC2382FEFD20724F4C2E8DFEFEE
:1052FA0001C0E9019E0121583F4F8901330F220B5A
:10530A00330BA9019801E7E1220F331F441F551FF0
:10531A00EA95D1F70E94303BDF91CF911F910F910F
:02532A000895E4
:10532C00A2E0B0E0ECE9F9E20C947F363C014B01D1
:10533C00FA01DB0112962D913C91139714964D9026
:10534C005C9015978D919C91119789839A831696F1
:10535C002D903C90179737FD03C08D7F89839A83DE
:10536C00008111812281338144815581668177814D
:10537C00FE0131965F018AE0C82ED12C7201C40166
:10538C000E94DC1C09811A81D40118964D915C9104
:10539C00199741505109481B590BB101680F791FDE
:1053AC009201C3010E94E62A9C01F3018081918144
:1053BC0090FF08C0D40112968D919C91139782177F
:0E53CC0093070CF4C9012296E2E10C94B0366E
:1053DA00AF92BF92CF92DF92EF92FF920F931F93F9
:1053EA00CF93DF935C016B01892BC9F1E0912CB358
:1053FA00F0912DB3099580E88093060480E8C816D9
:10540A00D104F0F08601E501E09032B3F09033B3B5
:10541A0060E870E0CE01F701099500581109C058FB
:10542A00DF4F00381105A0F7B6016F777727C6015D
:10543A0080589109807880589F4FA80EB91E01C0E4
:10544A00B601CAE2D3EBE885F985C501099580E87A
:10545A0080930504E881F981099581E001C080E023
:10546A00DF91CF911F910F91FF90EF90DF90CF9036
:06547A00BF90AF90089501
:10548000AF92BF92CF92DF92EF92FF920F931F9352
:10549000CF93DF935C016B01892BC9F1E0912CB3B1
:1054A000F0912DB3099580E88093060480E8C81632
:1054B000D104F0F08601E501E09034B3F09035B30B
:1054C00060E870E0CE01F701099500581109C05855
:1054D000DF4F00381105A0F7B6016F777727C601B7
:1054E00080589109807880589F4FA80EB91E01C03E
:1054F000B601CAE2D3EBEA85FB85C501099580E8D0
:1055000080930504E881F981099581E001C080E07C
:10551000DF91CF911F910F91FF90EF90DF90CF908F
:06552000BF90AF9008955A
:10552600CF93DF93CDB7DEB7A897CDBFDEBF0E947E
:10553600D2370E94D0310E94F4390F2EFFE1EF2EB0
:10554600F6EBFF2EF02D0F2EF4E1DF2EF02D8E015F
:105556000F5F1F4F0E949F38BC0180E090E00E94C1
:10556600363023E333E343E550E40E94303B20E04A
:1055760030EC4FE754E40E942C3B0E94AE3820E00A
:1055860030E040E05FE30E94863A0E9446339F93F4
:105596008F937F936F93FF92EF921F92DF921F93E9
:1055A6000F930E948537F801DE0155969D01CDBF08
:1055B600DEBF81918D93E217F307D9F7CE014596A9
:0655C6000E946515C7CF2D
:1055CC00A0E1B0E0ECEEFAE20C9481365C013B0118
:1055DC006A017901280181E04822552400FD14C09C
:1055EC00421753078CF487010C191D094801A801B7
:1055FC000131110510F040E150E060E270E0CE01A5
:10560C0001960E94FD390AC0A601B301C5010E9492
:10561C00AC35CE14DF043CF3C60120C000311105BB
:10562C0058F040E150E0BE016F5F7F4FC5010E9412
:10563C00AC3500511109F2CFA4014F705527BE01B2
:10564C006F5F7F4FC5010E94AC354114510429F4A2
:10565C00A601B301C5010E94AC35C7016096E0E11B
:04566C000C94B236B2
:1056700088249924F401E401B0E49F93AA279A15A1
:105680008B049C04ED05FE05CF05D007A10798F417
:10569000AD2FDC2FCF2FFE2FE92D982C892E982FA0
:1056A000872F762F652F542F432F322F2227B85064
:1056B00031F7BF9127C01B2EBF91BB27220F331F8D
:1056C000441F551F661F771F881F991F881C991C30
:1056D000EE1FFF1FCC1FDD1FAA1FBB1F8A149B04D8
:1056E000EC05FD05CE05DF05A007B10748F08A18D7
:1056F0009B08EC09FD09CE09DF09A00BB10B216065
:105700001A94E1F62EF49401AF01BE01CD01000C14
:025710000895FA
:105712000F931F93CF93DF9300D000D0CDB7DEB7A6
:105722008823BCF1082F082E000C110B9BE0890284
:10573200F0011124EE5DF34D9085992361F1898387
:105742008BE0809FF001819FF00D1124EE5DF34DFF
:10575200848195818B839C83818580FF02C06EE466
:1057620001C069E424E030E0AE014F5F5F4F82E0A8
:105772000E942037811111C09BE0909FF001919F00
:10578200F00D1124EE5DF34DDF011D929A95E9F7BC
:1057920005C08AEF03C08AEF01C087EF2496CDBF10
:0C57A200DEBFDF91CF911F910F910895A1
:1057AE00EF92FF920F931F93CF93DF93232B31F042
:1057BE0086E18093E32D8FEF9FEF37C0EA017B01E7
:1057CE008C0120E030E00E949C22882349F1823F28
:1057DE0009F18A3F41F5112334F486E28093E32DDB
:1057EE008FEF9FEF22C0EF2831F48EE08093E32DF0
:1057FE008FEF9FEF1AC0C937D54030F088E2809303
:10580E00E32D8FEF9FEF11C086E18093E32D8FEF95
:10581E009FEF0BC087E38093E32D8FEF9FEF05C0C3
:10582E008C2F9D2F02C08FEF9FEFDF91CF911F9195
:08583E000F91FF90EF90089517
:10584600CF93DF93CDB7DEB72C97CDBFDEBF611503
:10585600710581059105A9F121153105A1F1DC013B
:10586600CB01E1E0F0E0E987FA8789839A83AB838D
:10587600BC838091AF2D9091B02DA091B12DB091A8
:10588600B22D0196A11DB11D8093AF2D9093B02D21
:10589600A093B12DB093B22D8D839E83AF83B8872D
:1058A6004B872093CF2D3093D02D2CE030E0AE01E6
:1058B6004F5F5F4F62E582E00E942037882331F018
:1058C60004C081EF03C081EF01C087EF2C96CDBFE6
:0858D600DEBFDF91CF910895C0
:1058DE000F931F93CF93DF93DC012D913C91232BDC
:1058EE00D9F1EB018C010E94B43AF80180819181CB
:1058FE008C179D0761F40190F081E02D84819581D4
:10590E00D8018D939C930E94FF24C1E026C0F8011C
:10591E00A081B1811097E1F0CA17DB0789F404C0AA
:10592E00CE17DF0761F403C0FD01A0E0B0E0848173
:10593E00958114968D939C931597C1E00AC0DF0153
:10594E001496ED91FC911597309751F7C0E001C078
:10595E00C0E00E94AE3A01C0C0E08C2FDF91CF9123
:06596E001F910F91089546
:105974000F931F93CF93DF93CDB7DEB72897CDBF97
:10598400DEBF8A016F3F71058105910509F048F476
:1059940024EC2D8320E82E83982F872F762F6627DB
:1059A40003C02AEC2D838E837F83688764E0CE0155
:1059B40005960E940B3781111BC064E070E0CE0194
:1059C40001960E943F32811115C09A814B8150E0AB
:1059D40060E070E0BA0155274427592B9981492B7F
:1059E4009C81792BF801408351836283738303C0C4
:1059F40081E001C081E02896CDBFDEBFDF91CF9169
:065A04001F910F910895AF
:105A0A000F931F93CF93DF9300D000D0CDB7DEB7AB
:105A1A0021E030E040E050E06BE070E080E090E0B0
:105A2A000E94AF2E22E030E040E050E061E070E0FA
:105A3A0080E090E00E94AF2E0E944E3B082F811119
:105A4A001EC014E0AE014F5F5F4F6FE070E080E070
:105A5A0090E00E941B38811113C0898182FF04C023
:105A6A000E942F3A01E00CC062E070E080E090E012
