:100000000C947D000C948C250C9413250C943B1DB2
:100010000C94871F0C948C250C948C250C948C25A7
:100020000C948C250C948C250C948C250C948C258C
:100030000C948C250C948C250C948C250C948C257C
:100040000C948C250C948C250C948C250C948C256C
:100050000C948C250C948C250C948C250C948C255C
:100060000C948C250C948C250C948C250C948C254C
:100070000C948C250C94B01D0C948C250C948C2520
:100080000C948C250C948C250C948C250C948C252C
:100090000B09CF091F09CF092B09CF097B0990094B
:1000A000B409C009CC0928002C99802C992CC600D1
:1000B0004B382CC62CF5802CF52D05004B652D05F5
:1000C0002D23802D232D31004B752D312D48802D72
:1000D000482D84004B832D842D94802D942D9800E1
:1000E0004BBF2D982DCB802DCB2DCC004A552DCC40
:1000F0002DCD004AA52DCD2DD98011241FBECFEFC7
:10010000CDBFDFE3DEBFE6EAF0E040E017C0B59127
:10011000A59135912591059107FD0CC0959185918B
:10012000EF01F92FE82F05900D92A217B307D9F729
:10013000FE0104C01D92A217B307E1F7EA3FF407DE
:0E01400031F70E948F210C942924F894FFCFF0
:10014E00EF92FF920F931F93CF93DF9300D0CDB713
:10015E00DEB78C011092C72D8091C52D823020F014
:10016E00833009F497C07FC28091CA2D80FF7BC275
:10017E00C8010E94BF24C80108960E94BF2441E016
:10018E0050E066EC7CE2C8010E947D1B0F2EF6EC5F
:10019E00EF2EFCE2FF2EF02D67EC7CE2F701838D53
:1001AE00948D0E94DC21482F50E067EC7CE2C80160
:1001BE000E947D1B4AE050E06BEC7CE2C8010E947D
:1001CE007D1B42E050E065ED7CE2C8010E947D1B84
:1001DE00F70161897289FB0101900020E9F73197DF
:1001EE00AF01461B570BC8010E947D1BF701878983
:1001FE00908D892B31F48091D92C9091DA2C892B0A
:10020E0051F142E050E069ED7CE2C8010E947D1B95
:10021E000F2EF6ECEF2EFCE2FF2EF02DF7014389A8
:10022E00548954274527542765897689C8010E9429
:10023E007D1B42E050E06DED7CE2C8010E947D1B0B
:10024E00F7014789508D542745275427618D728DAC
:10025E00C8010E947D1BC8010E945A21882309F4FF
:10026E0005C28091CA2D8E7F8093CA2D85E0809322
:10027E00C72D40E355E760E070E08AE79DE20E94FB
:10028E00021782E08093C52D8091C82D8E7F8093BA
:10029E00C82DE9C18091CA2D882309F4E4C1482FE5
:1002AE0050E080FDE0C180E08F5F682F9A01082E3C
:1002BE0002C0359527950A94E2F720FFF5CF81E02D
:1002CE0090E002C0880F991F6A95E2F7883009F412
:1002DE00D3C020F4843009F44BC0C5C1803109F479
:1002EE004BC1803209F0BFC18091C82D81FFBBC1C7
:1002FE008091C82D8D7F8093C82D19821A82C801D6
:10030E000E94BF24C80108960E94BF248981817073
:10031E00806C8E7F89831A8241E050E0BE016F5F50
:10032E007F4FC8010E947D1B41E050E0BE016E5F11
:10033E007F4FC8010E947D1BC8010E945A2188234D
:10034E0009F491C18091CA2D8F7D8093CA2D809121
:10035E00C92D80618093C92D40E355E760E070E0C0
:10036E0086E69DE20E94021785E08093C72D7BC131
:10037E0080E79DE20E947B22C8010E94BF24C80133
:10038E0008960E94BF2441E050E065E07DE2C8017E
:10039E000E947D1B0F2EF5E0EF2EFDE2FF2EF02DBD
:1003AE0066E07DE2F701868597850E94DC21482F65
:1003BE0050E066E07DE2C8010E947D1B42E050E005
:1003CE006AE07DE2C8010E947D1BF70145815681DE
:1003DE0054274527542767817085C8010E947D1BCD
:1003EE00F70180818670823071F441E050E06FE059
:1003FE007DE2C8010E947D1B41E050E06EE07DE28F
:10040E00C8010E947D1BE5E0FDE2438550E0648556
:10041E007585C8010E947D1B8091CA2D82FD04C086
:10042E008091052D83FF30C1C8010E945A21882377
:10043E0009F42AC18091CA2D8B7F8093CA2D809199
:10044E00052D8670823009F015C18091C92D80620C
:10045E008093C92D0FC19827892798279C01215079
:10046E003109A8EEB3E00E949C23AB01BC0180E7EA
:10047E009DE20E940217F7C0C8010E94BF24C80166
:10048E0008960E94BF2441E050E065E17DE2C8017C
:10049E000E947D1B0F2EF5E1EF2EFDE2FF2EF02DBB
:1004AE0066E17DE2F701848595850E94DC21482F67
:1004BE0050E066E17DE2C8010E947D1B41E050E004
:1004CE006BE17DE2C8010E947D1B41E050E06AE1D4
:1004DE007DE2C8010E947D1B42E050E06CE17DE2AE
:1004EE00C8010E947D1BF70147815085542745277F
:1004FE00542761857285C8010E947D1B41E050E042
:10050E0060E27DE2C8010E947D1BC8010E945A2153
:10051E008823D1F08091CA2D877F8093CA2D809138
:10052E00C92D84608093C92D8091C82D877F8093BB
:10053E00C82D40E355E760E070E08CE59DE20E9437
:10054E00021785E08093C72D8091D32C9091D42CE7
:10055E00009709F488C09827892798279C01215075
:10056E003109A8EEB3E00E949C23AB01BC0180E7E9
:10057E009DE20E94021777C0C8010E94BF24C801E5
:10058E0008960E94BF2441E050E061E37DE2C8017D
:10059E000E947D1B0F2EF1E3EF2EFDE2FF2EF02DBC
:1005AE0062E37DE2F701838594850E94DC21482F6A
:1005BE0050E062E37DE2C8010E947D1B41E050E005
:1005CE0067E37DE2C8010E947D1B41E050E066E3D7
:1005DE007DE2C8010E947D1B42E050E068E37DE2AF
:1005EE00C8010E947D1BF70147815085542745277E
:1005FE00542761857285C8010E947D1BC8010E9427
:10060E005A218823D1F08091CA2D8F7E8093CA2DD6
:10061E008091C92D88608093C92D8091C82D8F7EC1
:10062E008093C82D40E355E760E070E082E59DE2DF
:10063E000E94021785E08093C72D8091D32C909154
:10064E00D42C009781F09827892798279C01215058
:10065E003109A8EEB3E00E949C23AB01BC0180E7F8
:10066E009DE20E9402178091C52D11C086E08093F5
:10067E00C72DF9CF85E08093C72D8091D32C909113
:10068E00D42C009781F3E7CE1092C52DECCF0F90AE
:10069E000F90DF91CF911F910F91FF90EF900895E2
:1006AE002F923F924F925F926F927F928F929F9274
:1006BE00AF92BF92CF92DF92EF92FF920F931F9362
:1006CE00CF93DF93CDB7DEB7C455D109CDBFDEBF13
:1006DE008B0169017A01813411F08435E9F424E04B
:1006EE0030E0AE014F5F5F4FC701B6010E94021CA2
:1006FE00811147C28A8126968FAF2697E091B62D3B
:10070E00F091B72D309709F43CC2AE014B5B5F4FB1
:10071E0061E08981099535C28234E9F424E030E044
:10072E00AE014F5F5F4FC701B6010E94021C8111DF
:10073E0028C28A8126968FAF2697E091B62DF0912A
:10074E00B72D309709F41DC2AE014B5B5F4F62E0CF
:10075E008981099516C2833409F077C02CE030E008
:10076E00AE014B5B5F4FC701B6010E94021C8111A7
:10077E0008C22F968FAD2F9788230CF441C0482FB7
:10078E00082E000C550B2E962FAD2E973BE0230313
:10079E00F0011124E05EF34D9185349FF001359FF9
:1007AE00F00D1124E05EF34D918791E090876196F4
:1007BE002EAD3FAD619728503109268337832091A6
:1007CE00B82D3091B92DB9016F5F7F4F29F060932D
:1007DE00B82D7093B92D06C02E5F3F4F2093B82DC4
:1007EE003093B92D9BE0949FF001959FF00D11244D
:1007FE00E05EF34D2091B82D3091B92D24833583D1
:10080E00898382E090E08A839B8329968EAD9FAD8B
:10081E0029978C839D832D968CAD9DADAEADBFADCE
:10082E002D978E839F83A887B987E091B62DF0917F
:10083E00B72D309709F4A5C1AE014F5F5F4F64E04D
:10084E002E968FAD2E9709959CC1843411F08B3462
:10085E0071F524E030E0AE014F5F5F4FC701B60186
:10086E000E94021C81118DC1898126968FAF269719
:10087E009A8127969FAF279791110CC02BE0820289
:10088E00F0011124E05EF34D2B813C81285031099B
:10089E0026833783E091B62DF091B72D309709F46A
:1008AE0070C1AE014B5B5F4F65E009956AC18A343A
:1008BE00E1F424E430E0AE014F5F5F4FC701B601B3
:1008CE000E94021C81115DC1E091B42DF091B52DF5
:1008DE00309709F456C125964CAD5DAD6EAD7FAD2A
:1008EE002597CE01019609954CC1863451F0883476
:1008FE0069F08D3409F0DDC00F2EF6E0AF2EF02D2D
:10090E0009C00F2EF6E0AF2EF02D04C00F2EF9E029
:10091E00AF2EF02D20E130E0AE014B5B5F4FC701F3
:10092E00B6010E94021C81112CC16296BFAC629767
:10093E0065962EAD3FAD65976B2D0B2C000C770B8E
:10094E008B2D9BE08902F0011124E05EF34D12869F
:10095E002F968EAD9FAD2F976196AEADBFAD6197C1
:10096E0029964EAD5FAD299749875A872D964CAC87
:10097E005DAC6EAC7FAC2D974B865C866D867E86AD
:10098E00448155812417350709F0FBC01816190646
:10099E000CF07DC04C018017910708F078C00097CD
:1009AE0009F4EFC02BE0269FF001279FF00D1124D4
:1009BE00E05EF34D20813181232B09F4E2C02BE060
:1009CE00269FF001279FF00D1124E05EF34D22814A
:1009DE003381232B09F4D5C02BE0269FF001279FEE
:1009EE00F00D1124E05EF34D2085213009F0C9C0D1
:1009FE00CA0EDB1EE11CF11C8D839E832BE0269F0D
:100A0E00C001279F900D1124FC01E05EF34D3F01C4
:100A1E002F01F2E04F0E511C130128E0220E311C63
:100A2E00F201008111818016910608F48401F30110
:100A3E00408151819801C701B6010E94021C8111AB
:100A4E00A0C0F3018081918189839A830B831C83DB
:100A5E008D819E81801B910B8D839E83E091B62D9F
:100A6E00F091B72D309731F0AE014F5F5F4F6A2D89
:100A7E008B2D0995C00ED11EE11CF11CF101808158
:100A8E00882309F47EC0801A910A51F67AC08B83AE
:100A9E009C8319821A82E091B62DF091B72D309772
:100AAE0009F46FC0AE014F5F5F4F6A2D8B2D099514
:100ABE0068C0853431F0873431F08C3481F517E01D
:100ACE0003C017E001C018E028E030E0AE014F5F30
:100ADE005F4FC701B6010E94021C811152C089816D
:100AEE004D815E812B813C8127962EAF3FAF27979C
:100AFE002BE08202F0011124E05EF34D248135815A
:100B0E0042175307F1F5E091B62DF091B72D3097BE
:100B1E00C1F1AE014B5B5F4F612F099532C082353B
:100B2E0081F524E130E0AE014F5F5F4FC701B601A2
:100B3E000E94021C811125C04D815E816F817885D6
:100B4E008091982D9091992DA0919A2DB0919B2DD9
:100B5E00481759076A077B0781F4E091B22DF0918F
:100B6E00B32D309751F029853A854B855C85698187
:100B7E007A818B819C81098909951092B22D1092F0
:100B8E00B32DCC5ADF4FCDBFDEBFDF91CF911F917A
:100B9E000F91FF90EF90DF90CF90BF90AF909F900E
:100BAE008F907F906F905F904F903F902F90089511
:100BBE00CF92DF92EF92FF920F931F93CF93DF931B
:100BCE00CDB7DEB72997CDBFDEBF8C011092C72DF2
:100BDE0019828091C82D82FD08C08091C82D83FD99
:100BEE0004C08091C82D84FF05C01092C52DC80188
:100BFE000E944D23F80186859785892B19F48091E3
:100C0E00C52DC3C18091C52D823039F0833009F4D2
:100C1E007CC0813009F09FC1A1C18091C82D80FD9B
:100C2E006BC0C090D32CD090D42C8AE79DE20E944A
:100C3E007B227801F8E0EF0EF11C41E050E0BE019E
:100C4E006F5F7F4FC7010E94B01A9C019981907F00
:100C5E00903209F041C08E010E5F1F4F84E0F80103
:100C6E0011928A95E9F741E050E0B801C7010E9460
:100C7E006A1A41E050E0BE016D5F7F4FC7010E94CE
:100C8E006A1AB8016E5F7F4F41E050E0C7010E94C3
:100C9E006A1A41E050E0BE016B5F7F4FC7010E94B0
:100CAE006A1A8D81882309F45FC169C18091CA2DAA
:100CBE0080628093CA2D960121503109A8EEB3E0CF
:100CCE000E949C23AB01BC0180E79DE20E940217AB
:100CDE0084E08093C72D42C182E08093C72D898125
:100CEE008093C62D2093A62D3093A72D1092C52D3F
:100CFE00C8010E944D2332C11092C52DC8010E9419
:100D0E004D2381E08093C72D29C17801F8E0EF0EC5
:100D1E00F11C41E050E0BE016F5F7F4FC7010E94A2
:100D2E00B01A898182958F70893099F138F48330A9
:100D3E0009F4D7C0843009F4D8C010C18B3009F43F
:100D4E0080C08D3009F00AC18091C92D84FF06C183
:100D5E008091C82D82FD02C186E69DE20E947B2213
:100D6E001A821B8241E050E0BE016E5F7F4FC701C9
:100D7E000E946A1A8091D32C9091D42C892B29F041
:100D8E008091CA2D80628093CA2DC7010E94BF2414
:100D9E00E5C08091C92D82FFE1C08091C82D83FDF1
:100DAE00DDC08CE59DE20E947B22BE016E5F7F4F0F
:100DBE0088E0FB0111928A95E9F741E050E0C70106
:100DCE000E946A1A41E050E0BE016D5F7F4FC7017D
:100DDE000E946A1A41E050E0BE01695F7F4FC70171
:100DEE000E946A1A41E050E0BE01685F7F4FC70162
:100DFE000E946A1A988580911A2D981312C09F81AD
:100E0E0080911B2D98130FC041E050E0BE01675F2B
:100E1E007F4FC7010E946A1A8985803831F013E02E
:100E2E0005C010E003C010E001C010E08091C92D94
:100E3E008B7F8093C92DC7010E94BF241093C52DAF
:100E4E008DC08091C92D83FF89C08091C82D84FDEE
:100E5E0085C082E59DE20E947B22BE016E5F7F4FC0
:100E6E0084E0FB0111928A95E9F741E050E0C70159
:100E7E000E946A1A41E050E0BE016D5F7F4FC701CC
:100E8E000E946A1A8B818230E1F441E050E0BE018B
:100E9E006C5F7F4FC7010E946A1A41E050E0BE01AD
:100EAE006B5F7F4FC7010E946A1A9D818091362D1C
:100EBE00981309C09C818091372D981731F010E05E
:100ECE0005C010E003C010E001C013E08091C92DF1
:100EDE00877F8093C92DC7010E94BF241093C52D13
:100EEE003DC0C8010E94C10B39C08E010E5F1F4F5D
:100EFE0084E0F80111928A95E9F741E050E0B801DB
:100F0E00C7010E946A1A41E050E0BE016D5F7F4F3B
:100F1E00C7010E946A1A41E050E0BE016B5F7F4F2D
:100F2E00C7010E946A1AB8016E5F7F4F41E050E020
:100F3E00C7010E946A1A9C8180910E2D98130EC0D3
:100F4E009D8180910F2D981309C08091C92D8F7DA1
:100F5E008093C92D03C087E08093C52D898180932E
:100F6E00C62D8091C52D11C0DC24CD24DC2483E058
:100F7E008093C52DC114D10409F4AACE97CE109238
:100F8E00C52D83E08093C72DE9CF2996CDBFDEBF57
:100F9E00DF91CF911F910F91FF90EF90DF90CF9047
:020FAE000895A4
:100FB0004F925F926F927F928F929F92AF92BF9269
:100FC000FF920F931F93CF93DF9300D000D0CDB744
:100FD000DEB7F82EB62E29013A0120E030E0A90153
:100FE0006CE070E0CB010E94C01B20E030E0A90162
:100FF0006CE870E180E090E00E94C01B20E030E0EF
:10100000A9016CEA77E082E090E00E94C01B21E039
:1010100030E040E050E068E171E180E090E00E9463
:10102000391B8111BFC020E034E040E050E060E0B7
:1010300074E180E090E00E94391B8111B5C064E149
:1010400070E180E090E00E94DD1F9923C4F76CEB13
:1010500077E082E090E00E94DD1F60FD19C00FEC98
:1010600017E061E070E080E090E00E943E216CE0DB
:1010700070E0CB010E94DD1F6E39704D8D4A9041AA
:1010800021F00150110968F703C0012B09F48EC04B
:10109000FF2079F02DE735ED4CE15CE36CEA77E079
:1010A00082E090E00E94C01B812C912C540193940B
:1010B0000DC0BB2039F0812C912C5401689487F825
:1010C000939404C0812C912C54019394A301920118
:1010D0006CE870E180E090E00E94C01B0E94DE0E90
:1010E000DC01CB019F70AA27BB27803A9340A10562
:1010F000B10510F0689481F8A501940160EA74E1EB
:1011000080E090E00E94C01BAE014F5F5F4F60EA3D
:1011100074E180E090E00E941723811109C0898169
:101120009A81AB81BC8188169906AA06BB0621F775
:1011300021E63FE242E55FEE6CE070E0CB010E9409
:10114000C01B00ED17E062E070E080E090E00E94DC
:101150003E21F11017C06CE870E180E090E00E9441
:10116000DD1F6633764283459240B9F420E030E0DB
:10117000A9016CE870E180E090E00E94C01B0E9431
:10118000022117C06CEA77E082E090E00E94DD1F48
:10119000633C714C8D45974D59F00150110999F6FA
:1011A00080E007C080E005C080E003C080E001C0AF
:1011B00081E02496CDBFDEBFDF91CF911F910F91CB
:1011C000FF90BF90AF909F908F907F906F905F90B7
:0411D0004F9008959F
:1011D400EF92FF920F931F93CF93DF93CDB7DEB7B8
:1011E4006097CDBFDEBF8BE59FE10E943F250E9443
:1011F40071258C010E94C41EE091C42D8E2F90E0B5
:101204008B30910508F0C9C0FC01E85BFF4F0C94DA
:101214001F250FEF10E027EE36E842E06CE080EF88
:1012240096E80E945324882321F089E00E94F52443
:10123400B4C081E00E94F524B0C00E94042364EE8F
:1012440070E28AE895E10E94952484E00E94F524E6
:10125400A4C0D8015096ED91FC91519780818F3FA5
:1012640011F00E945C18F801E088F18840E061E028
:1012740082E090E00E94AA0CD7018C93882321F08D
:1012840089E00E94F52489C082E090E089839A83F2
:1012940087E09BE58B839C838AE09CEBAAE0B0E823
:1012A4008D839E83AF83B887D8015096ED91FC91CE
:1012B400519740E1BE016F5F7F4F80810E94A61667
:1012C40088239CF4D8015096ED91FC91519780812C
:1012D4000E945C18D8015096ED91FC9151978FEFC4
:1012E400808389E00E94F52458C085E00E94F5249B
:1012F40054C08091C32D882359F18091C12D8F5FF3
:101304008093C12D833071F485EF9CE20E94792093
:10131400C8010E94A70084E08093C12D8091C32D51
:101324008823B1F01092C32DCE01019620E1FC0177
:1013340011922A95E9F722EE38E8288739872AE4BA
:101344003AE82D873E872AE02A872C870E94481393
:10135400C8010E94DF05C8010E94A70088E00E941E
:10136400F5241BC00E9471250E94DF050E946E2592
:101374008093C22D86E00E94F5240FC080E090E0A7
:101384000E94D72488E49DE20E947B228AE00E9486
:10139400F52403C080E00E94F52480E090E00E94E0
:1013A40077256096CDBFDEBFDF91CF911F910F915E
:0613B400FF90EF90089588
:1013BA002F923F924F925F926F927F928F929F925B
:1013CA00AF92BF92CF92DF92EF92FF920F931F9349
:1013DA00CF93DF93CDB7DEB72C97CDBFDEBF962F65
:1013EA009F779A8389830115110539F0F701389699
:1013FA00EC0DFD1DEB83FC8304C0F9013896EB83E9
:10140A00FC83EB81FC81ED33F64008F0ABC036017A
:10141A00680149015A01162F082F0E940E228111D4
:10142A00A3C02B813C81C901A0E0B0E0DC0199276F
:10143A008827802B9C01AD01312B2D833E834F835E
:10144A0058876CE870E180E090E00E94C01B22E0BF
:10145A0030E040E050E068E770E180E090E00E9410
:10146A00C01B19861A861B861C8607EE13E0AE017E
:10147A004B5F5F4F68E770E180E090E00E941723BE
:10148A000E947425882321F00E94F5218FEF6DC0F8
:10149A008D8181FD0AC0AE01475F5F4F60E074E055
:1014AA0085E190E00E9417230DC0053F81E01807EF
:1014BA0030F461E070E080E090E00E943E2101504B
:1014CA001109A8F60E947425811109C029843A8459
:1014DA004B845C84211431044104510421F40E9498
:1014EA00F5218DEF42C028E030E0AE014F5F5F4F3B
:1014FA00C201B1010E94A31088E0280E311C411CD0
:10150A00511CA114B10431F09401A501C201B10129
:10151A000E94A310C114D10451F0C201B101660D99
:10152A00771D811D911D9701A6010E94A31089852F
:10153A009A85AB85BC85880F991FAA1FBB1F880F88
:10154A00991FAA1FBB1F9C01AD0122606CE670E1C6
:10155A0080E090E00E94C01B0E94F5210E94742541
:10156A00819503C08FEF01C08FEF2C96CDBFDEBFF0
:10157A00DF91CF911F910F91FF90EF90DF90CF9065
:10158A00BF90AF909F908F907F906F905F904F9099
:06159A003F902F90089520
:1015A0008F929F92AF92BF92CF92DF92EF92FF9273
:1015B0000F931F93CF93DF938C01DC011696CD9090
:1015C000DD90ED90FC901997C0919E2DD0919F2DAC
:1015D00014961D921C9215978091882D9091892DBB
:1015E000A0918A2DB0918B2DC816D906EA06FB066C
:1015F00008F065C08090882D9090892DA0908A2D4C
:10160000B0908B2D8091C02D882329F10E94352523
:10161000A0E0B0E04091842D5091852D6091862D01
:101620007091872D84179507A607B70720F48FEFD1
:101630009FEFA0E0B0E04091842D5091852D609106
:10164000862D7091872D841A950AA60AB70A880EEE
:10165000991EAA1EBB1E209791F0FE0186819781DC
:10166000A085B18588199909AA09BB098683978342
:10167000A087B1870480F581E02D309779F78091BC
:10168000882D9091892DA0918A2DB0918B2D88194C
:101690009909AA09BB098093882D9093892DA0935D
:1016A0008A2DB0938B2DBFEFEB1AFB0AC818D9080F
:1016B000EA08FB08F801C682D782E086F186209707
:1016C00041F18E819F81A885B985C816D906EA06A1
:1016D000FB0658F41EC086819781A085B185C81687
:1016E000D906EA06FB06C0F1EF01EC81FD813097D7
:1016F00091F732C08091422D9091432DD8011496DC
:101700008D939C93159700939E2D10939F2D81E0B0
:101710002BC01092842D1092852D1092862D109240
:10172000872D80E090E00E94F2230E94072580919F
:10173000842D9091852DA091862DB091872D0E94AA
:10174000F2230E94072580919E2D90919F2DBDE24E
:101750008E339B0799F6CECFD8011496ED93FC9368
:1017600015970C831D8380E0DF91CF911F910F911E
:10177000FF90EF90DF90CF90BF90AF909F908F90B1
:021780000895CA
:101782004F925F926F927F928F929F92AF92BF928F
:10179200CF92DF92EF92FF920F931F93CF93DF933B
:1017A200CDB7DEB7CC53D140CDBFDEBFBE016F5F38
:1017B2007F4F20E1DB011D922A95E9F7FE01719628
:1017C20024E6DF011D922A95E9F7EC59FF4F28EC38
:1017D200DF011D922A95E9F78C01085F1F4F41E056
:1017E20050E0C8010E946A1A41E050E0BE016E5FFB
:1017F2007F4FC8010E946A1A8A818823ACF47E0155
:10180200B3E0EB0EF11C5E01E6E0AE0EB11C41E06E
:1018120050E0B701C8010E946A1AF7018081FFEF08
:10182200EF1AFF0A88236CF0FE013296412C512CEC
:101832003201C12CD12C7601C394812C912C5401FC
:1018420004C0EA14FB0419F7EFCFA191AF77B0E01F
:10185200A70196010E941E24460E571E681E791E7D
:10186200CC0CDD1CEE1CFF1CCC0CDD1CEE1CFF1C8A
:10187200CC0CDD1CEE1CFF1CCC0CDD1CEE1CFF1C7A
:10188200CC0CDD1CEE1CFF1CCC0CDD1CEE1CFF1C6A
:10189200CC0CDD1CEE1CFF1C8FEF881A980AA80ADC
:1018A200B80A99F2DF0111978C91882374F242E011
:1018B20050E0BE016A5F7F4FC8010E946A1ABE01F2
:1018C2006F5E7F4F688779874E815F8154274527F6
:1018D2005427C8010E946A1A8E819F8198278927FE
:1018E20098274EEF5FEF6FEF7FEF481B590B6109AF
:1018F2007109440D551D661D771DCE018B589F4FF2
:101902008D879E87BC01C8010E946A1A0E944425E5
:10191200FC01892B29F06D857E858885998509953D
:10192200C8010E94BF2483E0C45CDE4FCDBFDEBF8E
:10193200DF91CF911F910F91FF90EF90DF90CF90A9
:10194200BF90AF909F908F907F906F905F904F90DD
:021952000895F6
:10195400FF920F931F93CF93DF9300D000D0CDB7A6
:10196400DEB7029709F0B5C0613009F044C0209198
:10197400D62D022F10E0C801019667E070E00E94A6
:10198400B7228093D62D9BE0909FF001919FF00D9C
:101994001124E05EF34D9085911109C08BE0809F86
:1019A400F001819FF00D1124E05EF34D1BC0282F40
:1019B40036E00F2EFBE0FF2EF02D07E010E0822F23
:1019C40090E0F89EF001F99EF00D1124E05EF34DD5
:1019D4000196B8010E94B722582F9085911104C036
:1019E4005093D62D122F45C03150282F41F75093D4
:1019F400D62D1FEF3EC0623009F06DC02091D52D69
:101A0400822F90E03BE0239FF0011124E359F34D32
:101A1400019683709078992324F401978C6F9F6FBB
:101A240001968093D52D30853323D1F0282F33E0D0
:101A34006BE0822F90E0689FF001699FF00D112404
:101A4400E359F34D019683709078992324F4019718
:101A54008C6F9F6F01965085511105C08093D52DD1
:101A640017E0120F06C03150282F19F78093D52D97
:101A74001FEF309789F18BE0DF011D928A95E9F71A
:101A840081E080878091B82D9091B92D9C012F5FC2
:101A94003F4F29F02093B82D3093B92D05C00296FD
:101AA4008093B82D9093B92D8091B82D9091B92D34
:101AB4008483958340FF10C0198381E2818724E0E9
:101AC40030E0AE014F5F5F4F60E582E00E94662226
:101AD40003C01FEF01C01FEF812F2496CDBFDEBFCF
:0C1AE400DF91CF911F910F91FF900895AA
:101AF0001F93CF93DF93CDB7DEB72897CDBFDEBF5F
:101B00000E94EE24182F882309F4A0C0AE014F5F75
:101B10005F4F60E770E180E090E00E941723811141
:101B200084C089819A81AB81BC8180FF80C09C0187
:101B3000AD012E7F29833A834B835C8360E770E19C
:101B400080E090E00E94C01B811173C089819A815E
:101B5000AB81BC81B695A79597958795B695A795C6
:101B6000979587959F708093AC2D9093AD2D892B81
:101B700009F461C04CE85DE264E870E180E090E067
:101B80000E941723811159C060918C2D70918D2D69
:101B900080918E2D90918F2D24E030E0AE014B5F2F
:101BA0005F4F0E945C17182F811149C06F817885A3
:101BB0008091AC2D9091AD2D861B970B059708F069
:101BC00040C0ED818FEF8E0F8730E8F580918C2D2E
:101BD00090918D2DA0918E2DB0918F2D9C01AD01F6
:101BE000285F3F4F4F4F5F4F68507109F0E0EE0F95
:101BF000FF1FE453F6470190F081E02D8E81099597
:101C000081E00E94262222E030E040E050E060E7E0
:101C100070E180E090E00E94391B80E00E94262263
:101C20000E947425882391F010C014EF0FC014EFA8
:101C30000DC014EF0BC01EEF09C014EF07C014EF66
:101C400005C01AEF03C014EF01C014EF812F2896CE
:0C1C5000CDBFDEBFDF91CF911F91089542
:101C5C000F931F93CF93DF93CDB7DEB72897CDBFEC
:101C6C00DEBF182F0E94DE0EDC01CB019F70AA276D
:101C7C00BB27803A9340A105B10508F48BC0AE0197
:101C8C004B5F5F4F60E174E180E090E00E941723AE
:101C9C00082F811181C08D819E81AF81B8859F787D
:101CAC00A878B87F9C01AD013061416151602D83F2
:101CBC003E834F83588760E174E180E090E00E949E
:101CCC00C01B20E030E0A90168E072E081E090E008
:101CDC000E94C01B112359F02BEA30E040E050E089
:101CEC006CE072E081E090E00E94C01B0AC029EB1E
:101CFC0030E040E050E06CE072E081E090E00E9467
:101D0C00C01B21E030E040E050E064E172E081E093
:101D1C0090E00E94C01B20E030E0A9016CE172E071
:101D2C0081E090E00E94C01B21E830E040E050E0F0
:101D3C0064E072E081E090E00E94C01B0E94742578
:101D4C0081112CC0AE014F5F5F4F68E172E081E002
:101D5C0090E00E941723811108C089819A81AB8180
:101D6C00BC810197A105B10569F78D819E81AF8179
:101D7C00B8859F78A878B87F9C01AD0141602D8310
:101D8C003E834F83588760E174E180E090E00E94CD
:101D9C00C01B05C000E003C004EF01C004EF802F9E
:101DAC002896CDBFDEBFDF91CF911F910F91089583
:101DBC00CF92DF92EF92FF92CF93DF9300D000D0BF
:101DCC00CDB7DEB7C090902DD090912DE090922D94
:101DDC00F090932DC114D104E104F10409F078C002
:101DEC00AE014F5F5F4F64EF73E180E090E00E94C3
:101DFC00172381116DC040E95DE260E070E180E085
:101E0C0090E00E941723811163C08091902D9091D6
:101E1C00912DA091922DB091932D803A22E09207B2
:101E2C0020E1A207B105A9F489819A81AB81BC811B
:101E3C000197A105B105C1F181EA92E0A0E1B0E002
:101E4C008093902D9093912DA093922DB093932DE0
:101E5C002BC0803B9240A041B10531F589819A811C
:101E6C00AB81BC8183309105A105B105E9F00497E4
:101E7C00A105B10569F481EB92E0A0E1B0E080939B
:101E8C00902D9093912DA093922DB093932D0CC0E7
:101E9C0082EB92E0A0E1B0E08093902D9093912D95
:101EAC00A093922DB093932DC090902DD090912D06
:101EBC00E090922DF090932D80EFE82225E0E22A1D
:101ECC00C092902DD092912DE092922DF092932D64
:101EDC00C701B6012496CDBFDEBFDF91CF91FF9035
:081EEC00EF90DF90CF90089504
:101EF4008F929F92AF92BF92FF920F931F93CF93B3
:101F0400DF93CDB7DEB7CC56D109CDBFDEBFF82EF7
:101F140049015A018091992C8E3309F442C0F81674
:101F240031F009E91CE237C08F1135C002C009E95C
:101F34001CE2D80111962D913C911297211531057F
:101F440009F45BC0AE014F5F5F4FC501B4010E944D
:101F5400021C811159C0E091AA2DF091AB2D30974C
:101F640001F1D80111968D919C911297892B71F0F2
:101F7400B1E1FB1205C01092CE2D89818093D02D42
:101F8400BE016F5F7F4F8F2D09950BC060E070E03D
:101F94008F2D099506C00D5F1F4FF80180818E3388
:101FA40019F6F0E2FF1230C028E030E0AE014B59E0
:101FB4005F4FC501B4010E94021C811125C0AB967C
:101FC4002EAD3FADAB97A7964EAD5FADA797C501BC
:101FD400B401685F7F4F8F4F9F4F0E94021C811195
:101FE40013C0E091AA2DF091AB2D309769F0BE019A
:101FF4006B597F4F80E2099507C0E091AA2DF091BB
:10200400AB2D309771F2C2CFC459DF4FCDBFDEBFC5
:10201400DF91CF911F910F91FF90BF90AF909F9050
:042024008F900895FC
:102028000F931F93CF93DF930E94581E40E054E014
:1020380082EDFA01808320E234E0F901108280E425
:1020480094E0FC011082C0E6D4E06FE06883A0E869
:10205800B4E01C9200EA14E078E1F801708370E8BB
:10206800FA017483F9011482FC0114826C831496BA
:102078001C921497F8011482FA01108A118A128AA4
:10208800138A148A158A168A178AF901108A118AFE
:10209800128A138A148A158A168A178AFC01108AEA
:1020A800118A128A138A148A158A168A178A188A34
:1020B800198A1A8A1B8A1C8A1D8A1E8A1F8A5096A8
:1020C8001C92509751961C92519752961C92529777
:1020D80053961C92539754961C92549755961C925B
:1020E800559756961C92569757961C92F801108A47
:1020F800118A8BE0828B138A148A158A168A178AAA
:10210800E0EEF5E0118210821482158213821282A9
:1021180086E995E28093BE2D9093BF2D87E995E2DD
:102128008093BC2D9093BD2D88E995E28093BA2DBC
:0E2138009093BB2DDF91CF911F910F910895D1
:102146007F928F929F92AF92BF92CF92DF92EF9241
:10215600FF920F931F93CF93DF93CDB7DEB72897E8
:10216600CDBFDEBF6A018901FE01319697E0DF012E
:102176001D929A95E9F797EC99839091CC2D911140
:1021860049C091E09093CC2D2130310511F402E045
:1021960010E08A837B836C831E830F8367E0CE0106
:1021A60001960E945122B82E811137C081EF88878F
:1021B60001151105D9F1712C6894882485F80F2E24
:1021C600F3EF9F2EF02D0F2EF2EFAF2EF02D7801AC
:1021D6000130B0E21B0710F0E72CF82C0E191F098E
:1021E60009F4988661E070E0CE0108960E94B61761
:1021F6008823C9F0B701C6010E94B617882399F053
:10220600A886CE0CDF1C0115110509F70FC0109228
:10221600CC2D12C0BB24B3940FC0BB24B3940CC006
:10222600BB24B39409C0BB24B39406C083EC0E94BC
:102236008F1E882361F3F4CF8B2D2896CDBFDEBF8A
:10224600DF91CF911F910F91FF90EF90DF90CF908C
:0C225600BF90AF909F908F907F900895F4
:10226200CF93DF93EC01E6ECFCE28DE1DF011D92FE
:102272008A95E9F790819F709061908384E08683CC
:102282009DE4978391E5908794E591879287838770
:102292008F89988D892B21F48B899C89892B21F038
:1022A20082EC8093D22C03C082E08093D22C46EC45
:1022B2005CE28D859E85982789279827FA01858774
:1022C2009687A989BA89A18BB28BFD010190002062
:1022D200E9F79F01215031092A1B3B0BDA011F96B6
:1022E2002D933C9350974091D22C46FF09C0898D83
:1022F2009A8DFD01818F928F8F89988D878B908F18
:10230200442394F48D899E89E6ECFCE2858B968BBE
:102312006B897C89638B748B8789908D860F971F5D
:102322000496820F931F01C0C9010C968093E12C81
:102332009093E22C407C81F0E6ECFCE28789908D60
:10234200982789279827878B908F83899489982744
:1023520089279827838B948B322723273227209330
:10236200D52C3093D62C81E08093CA2D8093C52D35
:06237200DF91CF910895F8
:10237800CF92DF92EF920F93CF93DF93CDB7DEB773
:102388002B97CDBFDEBFDC01690119821A828B83CE
:102398009C836D830E83E11002C082E001C080E05F
:1023A800613248F00CC0FD01E60FF11D90819111DA
:1023B80003C0362F01C0362F6150A8F73D83423045
:1023C80081F018F4413039F048C0433059F14430B5
:1023D80009F43FC042C0BE016F5F7F4F0E94C12019
:1023E80043C0C114D104D9F11F82188619861A86F0
:1023F8001B86F60101900020E9F73197EC19FD09D9
:10240800E034F10519F4CF82D88603C0C986DA868C
:10241800EB87AE01495F5F4FBE016F5F7F4F0E9440
:10242800C61322C0C114D104E1F096012E5F3F4FBC
:102438002F833887F60191819150998790819A87E7
:10244800AE01495F5F4FBE016F5F7F4F0E94E91584
:102458000BC0CD2841F084EF07C081EF05C081EFA4
:1024680003C081EF01C081EF2B96CDBFDEBFDF91A6
:0C247800CF910F91EF90DF90CF9008956E
:10248400CF92DF92EF92FF920F931F93CF93DF933C
:10249400CDB7DEB72897CDBFDEBF88230CF45FC06D
:1024A4006115710509F45DC04115510509F45BC05E
:1024B400A82F082E000CBB0B9BE08902F00111240D
:1024C400E05EF34D9085992309F44FC09BE09A9FF9
:1024D400F0019B9FF00D1124E05EF34D6083718346
:1024E400428353839285911142C09BE09A9FF001ED
:1024F4009B9FF00D1124E05EF34D91E0928791854E
:1025040090FF02C06DE401C066E4011511052105C8
:10251400310549F4CC24CA94DC2C7601C982DA82D0
:10252400EB82FC8204C009831A832B833C838D8352
:102534008BE08A9FF0018B9FF00D1124E05EF34D38
:10254400848195818F83988728E030E0AE014F5FC6
:102554005F4F82E00E946622882361F00AC08AEFFE
:1025640009C08AEF07C08AEF05C08AEF03C080E084
:1025740001C082EF2896CDBFDEBFDF91CF911F91BE
:0C2584000F91FF90EF90DF90CF90089532
:10259000CF92DF92EF92FF920F931F93CF93DF932F
:1025A000CDB7DEB76097CDBFDEBF88230CF45BC02C
:1025B0006115710509F459C0493795E0590708F0CC
:1025C00056C0282F082E000C330B9BE08902F00127
:1025D0001124E05EF34D9085992309F44AC0898364
:1025E0004B835C839BE0929FF001939FF00D11243D
:1025F000E05EF34D0480F581E02DED87FE878730A6
:1026000034F00F2EF4E4CF2ED12CF02D05C00F2E78
:10261000F0E5CF2ED12CF02D8BE0829FF001839F2F
:10262000F00D1124E05EF34D818580FF0CC08BE03E
:10263000829FF001839FF00D1124E05EF34DC68070
:10264000D7808CE401C085E47A018B01682F606833
:1026500020E130E0AE014F5F5F4F82E00E94DD0974
:10266000882351F008C08AEF07C08AEF05C08AEFBF
:1026700003C08AEF01C082EF6096CDBFDEBFDF915D
:10268000CF911F910F91FF90EF90DF90CF90089521
:10269000CF93DF93FC0180E1A5E0BDE2ED0119924B
:1026A0008A95E9F78091C52D833009F06BC09C9124
:1026B0009F7090639C93808183FB882780F980FBC7
:1026C00093F99C9380818670997F982B9C939E7040
:1026D000983019F48C91877F8C939081A5E0BDE2AE
:1026E0008C9190FB80F98C938781908517968D93C0
:1026F0009C93189727813085E90109900020E9F71C
:10270000CE010197821B930B15968D939C93169780
:1027100020812695237071F0218519962C931997A5
:1027200022851A962C931A9722E030E01E962D935C
:102730003C931F9724853585A5E0BDE21C962D931B
:102740003C931D9743851B964C931B971E962D918A
:102750003C911F972E5F3F4F240F311D280F391FCB
:102760001E962D933C931F97982789279827159697
:102770008D939C9316978091CA2D84608093CA2D67
:0C27800081E001C080E0DF91CF9108955E
:10278C00CF92DF92EF92FF920F931F93CF93DF9331
:10279C00CDB7DEB7CC59D109CDBFDEBF4115510540
:1027AC0009F452C07A019B018E0103591F4F4CE66C
:1027BC0050E062E00E944414811153C0FE01319636
:1027CC008CE6DF011D928A95E9F7F7016081718132
:1027DC006115710571F082819381892B79F580E403
:1027EC00898340E2CE0102960E94811C811138C07F
:1027FC002DC0628173816115710511F144814134E1
:10280C0008F5498350E0CE0102960E9434240F2E25
:10281C00F0E3CF2ED12CF02D0F2EFCE6EF2EF12C69
:10282C00F02D8E010F5F1F4F20E330E0AE014359B6
:10283C005F4F6BEB81E00E94DD0913C081EF11C08B
:10284C0081EF0FC081EF0DC081EF0BC0498150E0CB
:10285C00F70160817181CE0102960E943424D7CF9A
:10286C0081EFC456DF4FCDBFDEBFDF91CF911F91FB
:0C287C000F91FF90EF90DF90CF90089537
:102888000F931F93CF93DF93F901D801445D5F4FF6
:10289800309709F459C022813381232B09F456C09B
:1028A8009481913208F054C0109709F453C090E312
:1028B800E80119929A95E9F74D935C931197813045
:1028C80059F088F0823009F047C012968C9112971F
:1028D800826012968C93129712968C91129781604F
:1028E80012968C93129785818F3F21F413968C93BF
:1028F800139706C081508E3088F513968C931397E2
:102908008FEF860F843060F5ED018F016CA784810D
:102918008C83448150E062817381CD0105960E94C9
:102928003424F80180819181892BE1F081E08DA325
:10293800DE0196960190F081E02D86E001900D92DF
:102948008A95E1F780E00FC081EF0DC081EF0BC0E1
:1029580081EF09C084EF07C081EF05C081EF03C094
:1029680081EF01C080E0DF91CF911F910F91089511
:102978000F931F930E940125E0919E2DF0919F2DAA
:10298800309719F40E943C225CC04091882D5091E8
:10299800892D60918A2D70918B2D86819781A085D4
:1029A800B185841B950BA60BB70B009701E0A00718
:1029B800B10500F14091882D5091892D60918A2DA3
:1029C80070918B2DAEE3BDE2415051096F4F7F4F9F
:1029D80016964D935D936D937C9319971496ED938A
:1029E800FC931597A0939E2DB0939F2D8FEF9FEF8B
:1029F800A0E0B0E04FEF5FEF60E070E08A019B017C
:102A0800081B190B2A0B3B0B0093842D1093852D63
:102A18002093862D3093872D80E090E00E94F2234A
:102A28000E9407258091842D9091852DA091862D57
:102A3800B091872D0E94F2230E94FB2481E08093AD
:082A4800C02D1F910F910895AC
:102A5000CF93DF93611104C094E09093060403C008
:102A600094E090930504C0E4D4E043E04E83A0E6F4
:102A7000B4E030E516963C93169785FB992790F9BC
:102A8000990F84FB222720F9922B9D83282F2074F5
:102A9000982F991F9927991F9295907F922B1596A1
:102AA0009C93159760E074E098E0FB019583F3E058
:102AB000FA95F1F70000FB019683E3EFF1E031971F
:102AC000F1F700C000004E8316963C931697282F0E
:102AD00023702D8382FB222720F92295220F220FBB
:102AE000207C83FB882780F98295807F822B159636
:102AF0008C93FB019583F3E0FA95F1F70000FB015D
:102B0000968387E893E10197F1F700C00000DF9119
:042B1000CF910895C4
:102B1400FF920F931F93CF93DF93F82EEA01663051
:102B240051F1673009F444C0653009F04AC00E948D
:102B340071258C01209789F08981882374F086E0BF
:102B44000E94F52400E010E0980140E051E060E9C3
:102B540079E28F2D0E94421234C089E00E94F5244C
:102B6400D8015096ED91FC9151978FEF80838F2D72
:102B74000E945C1826C00E9471258C01209751F098
:102B84006A817B81161617062CF4888199810E942C
:102B94008F2217C089E00E94F524D8015096ED9148
:102BA400FC9151978FEF80838F2D0E945C1809C090
:102BB40000E010E0980140E051E060E979E20E9411
:0E2BC4004212DF91CF911F910F91FF90089563
:102BD200CF92DF92EF92FF920F931F93CF93DF93E7
:102BE200CDB7DEB7C054D109CDBFDEBFFA013097F1
:102BF200D1F120813181232BC1F193819150943005
:102C0200B0F592819F7E9A30A1F57A019B018E01E7
:102C12000F5F1F4F40E150E063E00E9444148111B6
:102C220029C0F7018381815089AB428146954AAB25
:102C320060817181CE01C3960E94811C0F2EF0E348
:102C4200CF2ED12CF02D6894EE24E4F8F12C005D07
:102C52001F4F20E330E0AE014F5F5F4F6BEB81E02F
:102C62000E94DD0907C081EF05C081EF03C081EF3B
:102C720001C081EFC05CDF4FCDBFDEBFDF91CF91DE
:0E2C82001F910F91FF90EF90DF90CF9008957B
:102C9000FF920F931F93CF93DF93CDB7DEB72C979F
:102CA000CDBFDEBF6115710509F440C08B01F82E60
:102CB00086E2FB0111928A95E9F7AE01475F5F4F0B
:102CC00068E070E08CE090E00E941723811134C02E
:102CD00089859A85AB85BC850097A105B10561F111
:102CE000BC01CD01836028E030E0AE014F5F5F4F53
:102CF0000E945C17811120C08D819E81AF81B885B3
:102D0000AA27BB270097A105B10591F0F11003C0D8
:102D100080E090E0DC01BC01CD01836026E230E080
:102D2000A8010E945C17882341F004C081EF05C010
:102D300084EF03C084EF01C084EF2C96CDBFDEBFCB
:0C2D4000DF91CF911F910F91FF9008953B
:102D4C00CF93DF93CDB7DEB72C97CDBFDEBFFB01A2
:102D5C0088230CF442C0309709F441C0282F082E68
:102D6C00000C330B9BE08902D0011124A05EB34D03
:102D7C0018969C919923A9F14423A9F19BE0929F69
:102D8C00D001939FB00D1124A05EB34D19969C9168
:102D9C0090FF03C09A876BE401C064E4898788E0E4
:102DAC00DE01119601900D928A95E1F78BE0829FDE
:102DBC00F001839FF00D1124E05EF34D8481958129
:102DCC008B879C872CE030E0AE014F5F5F4F82E039
:102DDC000E946622882351F008C08AEF07C08AEF50
:102DEC0005C08AEF03C08AEF01C087EF2C96CDBFD8
:082DFC00DEBFDF91CF910895C5
:102E0400CF92DF92EF92FF92CF93DF93EC016A01AE
:102E14007B010E947B220E9401258091882D909144
:102E2400892DA0918A2DB0918B2DC80ED91EEA1E32
:102E3400FB1E8091C02D882329F10E943525A0E036
:102E4400B0E04091842D5091852D6091862D709134
:102E5400872D84179507A607B70720F48FEF9FEFF8
:102E6400A0E0B0E04091842D5091852D6091862D95
:102E74007091872DC41AD50AE60AF70AC80ED91E1E
:102E8400EA1EFB1ECE82DF82E886F986CE010E940E
:102E9400D00A882319F00E94BC1405C08091C02D6B
:102EA40081110E94FB24DF91CF91FF90EF90DF907E
:042EB400CF9008951E
:102EB800EF92FF920F931F93CF93DF93CDB7DEB7B7
:102EC8002997CDBFDEBFFE01339697E0DF011D9243
:102ED8009A95E9F798EC9B839091CC2D911131C08C
:102EE80089017A0191E09093CC2D8C837D836E8348
:102EF8002130310549F482E0898767E0CF010E94DB
:102F08005122882359F01FC01887298767E0CE010E
:102F180003960E945122882359F017C062E070E09E
:102F2800CE0101960E94211E9981F701908304C069
:102F3800B801C7010E94211E811109C01092CC2D31
:102F480007C081E005C081E003C081E001C081E0E5
:102F58002996CDBFDEBFDF91CF911F910F91FF90D2
:042F6800EF90089549
:102F6C00AF92BF92CF92DF92EF92FF920F931F938B
:102F7C00CF93DF935C016B01892BC9F1E091BC8885
:102F8C00F091BD88099580E88093060480E8C81606
:102F9C00D104F0F08601E501E090C288F090C3887E
:102FAC0060E870E0CE01F701099500581109C0588E
:102FBC00DF4F00381105A0F7B6016F777727C601F0
:102FCC0080589109807880589F4FA80EB91E01C077
:102FDC00B601CAEBD8E8E885F985C501099580E802
:102FEC0080930504E881F981099581E001C080E0B6
:102FFC00DF91CF911F910F91FF90EF90DF90CF90C9
:06300C00BF90AF90089593
:10301200AF92BF92CF92DF92EF92FF920F931F93E4
:10302200CF93DF935C016B01892BC9F1E091BC88DE
:10303200F091BD88099580E88093060480E8C8165F
:10304200D104F0F08601E501E090C488F090C588D3
:1030520060E870E0CE01F701099500581109C058E7
:10306200DF4F00381105A0F7B6016F777727C60149
:1030720080589109807880589F4FA80EB91E01C0D0
:10308200B601CAEBD8E8EA85FB85C501099580E857
:1030920080930504E881F981099581E001C080E00F
:1030A200DF91CF911F910F91FF90EF90DF90CF9022
:0630B200BF90AF900895ED
:1030B8000F931F93CF93DF9300D000D0CDB7DEB727
:1030C8008823BCF1082F082E000C110B9BE0890205
:1030D800F0011124E05EF34D9085992361F1898315
:1030E8008BE0809FF001819FF00D1124E05EF34D8D
:1030F800848195818B839C83818580FF02C06EE4E7
:1031080001C069E424E030E0AE014F5F5F4F82E028
:103118000E946622811111C09BE0909FF001919F4F
:10312800F00D1124E05EF34DDF011D929A95E9F749
:1031380005C08AEF03C08AEF01C087EF2496CDBF90
:0C314800DEBFDF91CF911F910F91089521
:10315400EF92FF920F931F93CF93DF93232B31F0C2
:1031640086E18093D32D8FEF9FEF37C0EA017B0177
:103174008C0120E030E00E94C812882349F1823F8C
:1031840009F18A3F41F5112334F486E28093D32D6B
:103194008FEF9FEF22C0EF2831F48EE08093D32D80
:1031A4008FEF9FEF1AC0C937D54030F088E2809383
:1031B400D32D8FEF9FEF11C086E18093D32D8FEF36
:1031C4009FEF0BC087E38093D32D8FEF9FEF05C054
:1031D4008C2F9D2F02C08FEF9FEFDF91CF911F9116
:0831E4000F91FF90EF90089598
:1031EC00CF93DF93CDB7DEB72C97CDBFDEBF611584
:1031FC00710581059105A9F121153105A1F1DC01BC
:10320C00CB01E1E0F0E0E987FA8789839A83AB830D
:10321C00BC838091982D9091992DA0919A2DB0916D
:10322C009B2D0196A11DB11D8093982D9093992DE6
:10323C00A0939A2DB0939B2D8D839E83AF83B887DB
:10324C004B872093B22D3093B32D2CE030E0AE01A0
:10325C004F5F5F4F62E582E00E946622882331F067
:10326C0004C081EF03C081EF01C087EF2C96CDBF66
:08327C00DEBFDF91CF91089540
:103284000F931F93CF93DF93DC012D913C91232B5C
:10329400D9F1EB018C010E940125F8018081918113
:1032A4008C179D0761F40190F081E02D8481958154
:1032B400D8018D939C930E94BC14C1E026C0F801F0
:1032C400A081B1811097E1F0CA17DB0789F404C02B
:1032D400CE17DF0761F403C0FD01A0E0B0E08481F4
:1032E400958114968D939C931597C1E00AC0DF01D4
:1032F4001496ED91FC911597309751F7C0E001C0F9
:10330400C0E00E94FB2401C0C0E08C2FDF91CF916C
:063314001F910F910895C6
:10331A000F931F93CF93DF93CDB7DEB72897CDBF17
:10332A00DEBF8A016F3F71058105910509F048F4F6
:10333A0024EC2D8320E82E83982F872F762F66275B
:10334A0003C02AEC2D838E837F83688764E0CE01D5
:10335A0005960E94512281111BC064E070E0CE01E3
:10336A0001960E94211E811115C09A814B8150E05D
:10337A0060E070E0BA0155274427592B9981492BFF
:10338A009C81792BF801408351836283738303C044
:10339A0081E001C081E02896CDBFDEBFDF91CF91E9
:0633AA001F910F91089530
:1033B0008F929F92AF92BF92CF92DF92EF92FF9245
:1033C000CF93DF9300D000D0CDB7DEB76B017C0187
:1033D00049015A01AE014F5F5F4F0E941723898157
:1033E0009A81AB81BC81AC01BD01482159216A2180
:1033F0007B21452B462B472BA1F0B501A40140951D
:103400005095609570959A01AB01282339234A2382
:103410005B2329833A834B835C83C701B6010E94F7
:10342000C01B8091CC2D2496CDBFDEBFDF91CF9104
:10343000FF90EF90DF90CF90BF90AF909F908F90D4
:023440000895ED
:103442000F931F93CF93DF9300D000D0CDB7DEB799
:1034520021E030E040E050E06BE070E080E090E09E
:103462000E94391B22E030E040E050E061E070E071
:1034720080E090E00E94391B0E947425082F811180
:103482001EC014E0AE014F5F5F4F6FE070E080E05E
:1034920090E00E941723811113C0898182FF04C02A
:1034A2000E94CF2401E00CC062E070E080E090E076
:1034B2000E943E21115031F70E94CF2401C000E04A
:1034C200802F2496CDBFDEBFDF91CF911F910F9148
:0234D20008955B
:1034D400EF92FF920F931F93CF93DF93FC0104812C
:1034E40015810150110980819181080F191F41151F
:1034F400510561F186819781892B31F1E62EF72EF2
:10350400A0E0B0E082819381EC019881E701999376
:103514007E01228133812F5F3F4F22833383668173
:10352400778161507109668377830217130720F44A
:10353400808191818283938311964A175B0731F0CE
:10354400672B01F7AD0102C040E050E0CA01DF91F2
:0C355400CF911F910F91FF90EF90089510
:10356000EF92FF920F931F93CF93DF938C01DC01B7
:103570001296ED91FC9113971496ED90FC9015978F
:10358000B1E0EB1AF108EC0188819981E80EF91E8F
:103590004115510511F18E819F81892BE1F0A62FF4
:1035A000B72F20E030E0EF01C20FD31F98819D9329
:1035B000EE16FF0618F4E801E881F9812F5F3F4F0E
:1035C0004217530751F0E8016E817F8126173707B4
:1035D00050F3A90102C040E050E0CA01DF91CF9151
:0A35E0001F910F91FF90EF900895E6
:1035EA00A0919E2DB0919F2D14962D913C911597E7
:1035FA0016964D915D916D917C9119974093882D06
:10360A005093892D60938A2D70938B2D1092842D5F
:10361A001092852D1092862D1092872D8DE2AE3351
:10362A00B807D9F014961D921C92159780919C2D7B
:10363A0090919D2D892B29F4A0939C2DB0939D2DBB
:10364A000CC0E0919C2DF0919D2D01C0FC0184815C
:10365A0095810097D9F7A483B58320939E2D309343
:08366A009F2D0E94BC1408957D
:103672008F929F92AF92BF92CF92DF92EF92FF9280
:10368200CF93DF9300D000D0CDB7DEB74B015C0102
:1036920069017A01AE014F5F5F4F0E941723498192
:1036A2005A816B817C81DB01CA018C219D21AE2173
:1036B200BF21C816D906EA06FB0671F09A01AB01D2
:1036C2002C293D294E295F2929833A834B835C8328
:1036D200C501B4010E94C01B8091CC2D2496CDBFA0
:1036E200DEBFDF91CF91FF90EF90DF90CF90BF9040
:0836F200AF909F908F900895A6
:1036FA00EF92FF920F931F93CF93DF93FC01EB019D
:10370A007A0120813181648175818B01015011090F
:10371A00020F131F82819381821B930B468157816B
:10372A00840F951F0E94A322D901A80FB91FE11483
:10373A00F104C9F097010A171B0710F4A081B1819F
:10374A0086819781892B29F082819381A817B907ED
:10375A0051F089918D93868197810196868397830B
:10376A002150310941F7C701DF91CF911F910F9184
:06377A00FF90EF9008959E
:10378000CF92DF92EF92FF92CF93DF93CDB7DEB768
:103790002897CDBFDEBFE091CC2DE11126C0E1E03E
:1037A000E093CC2D613371058105910540F4E3EC84
:1037B000E983E0E8EA83FE013396A7E007C0E9EC7D
:1037C000E9838A837B83FE013496A8E0608351837A
:1037D0004283338324836A2FCE0101960E945122B3
:1037E000811105C01092CC2D03C081E001C081E0A1
:1037F0002896CDBFDEBFDF91CF91FF90EF90DF9095
:04380000CF900895C8
:103804008F929F92AF92BF92CF92DF92EF92FF92EC
:10381400E091AC2DF091AD2DE217F30708F1C090C3
:103824008C2DD0908D2DE0908E2DF0908F2D6C15D9
:103834007D058E059F05B0F0CE0EDF1EE11CF11C48
:103844004B015C01820E931EA11CB11CC814D90447
:10385400EA04FB0448F00E945C17882341F006C088
:1038640084EF05C084EF03C084EF01C084EFFF90B0
:10387400EF90DF90CF90BF90AF909F908F9008957E
:103884002091C52D2330B9F52091C92D22FD35C0D5
:10389400E5E1FDE22EE0DF011D922A95E9F72081A2
:1038A400297022682083DC0115962C9115972583B5
:1038B40016962C911697268317962D913C9118975E
:1038C400522F432F4783508719964D915C911A9735
:1038D400418752871B968C91838784859585820FB7
:1038E400931F0596848795878091CA2D886080935D
:0E38F400CA2D81E0089580E0089580E00895D7
:10390200CF93DF93DC018FEF840F442361F1E62F25
:10391200F72F482F50E04F5F5F4F4A0F5B1FEF01B9
:10392200908190539A3030F090628FEC890F8630FC
:10393200E0F497529031D8F49295907F9C9329812C
:1039420020532A3030F020628FEC820F863088F4C8
:103952002752203180F4290F2D933296A417B507F0
:10396200F1F680E009C080E007C081EF05C081EF79
:0E39720003C081EF01C081EFDF91CF91089576
:10398000CF93DF93D82F0E948E25882379F10E9450
:103990005F250E94632562E370E080E090E00E9472
:1039A0003E210E945B256AE070E080E090E00E948A
:1039B0003E210E9467256AE070E080E090E00E946E
:1039C0003E210E94C724C82F811112C0DD2399F027
:1039D0000E942021882371F020E030E0A90160E0FE
:1039E00073E082E090E00E94C01B05C0C1E003C00C
:0E39F000C1E001C0C1E08C2FDF91CF9108959E
:1039FE001F93CF93DF9300D000D0CDB7DEB70E94D8
:103A0E007425182F811127C0AE014F5F5F4F60E103
:103A1E0070E080E090E00E94172381111DC0898123
:103A2E0080FDF2CF22E030E040E050E061E070E057
:103A3E0080E090E00E94D81921E030E040E050E0B4
:103A4E006BE070E080E090E00E94D8190E9474252F
:103A5E0011E0182701C010E0812F2496CDBFDEBFE4
:083A6E00DF91CF911F91089533
:103A76001F920F920FB60F9211242F933F934F93DD
:103A86005F936F937F938F939F93AF93BF93EF93C0
:103A9600FF938091430180FF07C0E091A42DF09130
:103AA600A52D309709F009958091430181FF07C044
:103AB600E091A22DF091A32D309709F0099583E0AE
:103AC60080934301FF91EF91BF91AF919F918F91A9
:103AD6007F916F915F914F913F912F910F900FBE04
:063AE6000F901F901895DF
:103AEC00FC01892B69F1248130E0322F2227868159
:103AFC008F70A901482B258180E1289F900111240A
:103B0C003327242B352B678170E0762F6627818530
:103B1C008F70682B408580E1489FA00111245527A8
:103B2C00CB01842B952B2115310561F0009761F0A9
:103B3C008236934158F42136334150F080E0089599
:103B4C0081EF089581EF089581EF089583EF089533
:043B5C0083EF089556
:103B60001F920F920FB60F9211242F933F934F93F2
:103B70005F936F937F938F939F93AF93BF93EF93D5
:103B8000FF93BB9B05C0E091BE2DF091BF2D099521
:103B9000BA9B05C0E091BC2DF091BD2D0995BC9B51
:103BA00005C0E091BA2DF091BB2D09958FEF87BB31
:103BB000FF91EF91BF91AF919F918F917F916F9105
:103BC0005F914F913F912F910F900FBE0F901F90DB
:023BD000189546
:103BD200CF93DF93CDB7DEB7A897CDBFDEBF0E94EC
:103BE2009E248FE394E289839A83CE0101960E94F8
:103BF200AB230E94B31FCE010C962DE1FC01119262
:103C02002A95E9F722E0288F2FE030E0298F3A8FBA
:103C12002CED36E82D8F3E8F0E94311140EB56E39A
:103C220060E070E088E49DE20E94021761E083E0B8
:103C32000E945320A896CDBFDEBFDF91CF91089599
:103C4200CF92DF92EF92FF920F931F93CF93DF9366
:103C52007C018B01672BE9F0C12C6894DD24D5F837
:103C6200E801013080E2180710F0CC2DDD2D80EF45
:103C72000E948F1E8C7079F4BE01C7010E94091840
:103C8200882359F0EC0EFD1E0C1B1D0B49F780E03A
:103C920005C080E003C081E001C081E0DF91CF91E7
:0E3CA2001F910F91FF90EF90DF90CF9008954B
:103CB000E0E9F4E0808188608193E83984E0F807E6
:103CC000C9F7E0EBF4E0808188608193E83B84E011
:103CD000F807C9F7E0E1F4E0808188608193E8317A
:103CE00084E0F807C9F7E0E3F4E08081886081931D
:103CF000E83384E0F807C9F7E0E5F4E08081886004
:103D00008193E83584E0F807C9F7E0E7F4E08081C3
:0E3D100088608193E83784E0F807C9F70895CA
:103D1E000F931F93CF93DF930F92CDB7DEB7082F7C
:103D2E001BE061E070E0CE0101960E940918882325
:103D3E00C9F0003F21F48981807F803FC1F08981E5
:103D4E0008130AC061E070E0CE0101960E940918C6
:103D5E00882351F089810BC0811108C0115009F7D9
:103D6E008FEF05C08FEF03C08FEF01C08FEF0F9065
:0A3D7E00DF91CF911F910F9108957E
:103D88001F93CF93DF9380919C2D90919D2D892B2C
:103D980039F10E940D25182F0E940125C0919C2DF4
:103DA800D0919D2DE0919C2DF0919D2D8481958140
:103DB80080939C2D90939D2D1C821D8211110E9431
:103DC800FB24E881F9818A819B8109956115710538
:103DD8008105910529F0AB01BC01CE010E940217B3
:083DE800DF91CF911F910895B6
:103DF000CF93DF93CDB7DEB7A697CDBFDEBF0097D9
:103E0000F9F0FC01808191818093AA2D9093AB2DD4
:103E10001092CE2D21E633E140E353E160E080E0F3
:103E20000E94D02381110EC082E08093CF2D0E948A
:103E30001925811109C0CE0101960E94752105C086
:103E400081EF03C08BEF01C08BEFA696CDBFDEBF25
:063E5000DF91CF910895FF
:103E5600E0E0F4E080818C608083E0E4F4E080813F
:103E660083608083E0E6F4E08081806580838FE470
:103E760093EC0197F1F700C0000060E082E00E9439
:103E8600281560E088E20E94281560E08CE00E9418
:103E9600281560E086E00E94281560E081E00E9417
:103EA600281587E893E10197F1F700C0000008950F
:103EB600FB018081811120C00CC0FB01EA0FFB1FB2
:103EC600E057F54D90838F5F803119F09D919111E8
:103ED600F4CFE82FF0E0E057F54D10820E94E7237B
:103EE60060E080E80E94281580E99AE20E945E233D
:103EF60082E08093670408958093902ADB011196EF
:083F060081E060957095E2CFA7
:103F0E001F920F920FB60F9211242F933F934F9340
:103F1E005F936F937F938F939F93AF93BF93EF9323
:103F2E00FF93E091A02DF091A12D309709F0099506
:103F3E0081E080935301FF91EF91BF91AF919F91DB
:103F4E008F917F916F915F914F913F912F910F9034
:083F5E000FBE0F901F90189593
:103F6600CF93DF930E946B25C0E0D8E218821982B6
:103F7600A8E5BBE21D921C921197E3EEFCE2C0831A
:103F8600D18380E991E084839583C283D3831682AB
:103F96001782A087B18788EC90E084879587A287EF
:103FA600B387168617868BEC9DE2808B918BDF910B
:043FB600CF9108950A
:103FBA00CF93DF9300D000D0CDB7DEB72091CC2DC0
:103FCA00211111C021E02093CC2DAE014F5F5F4F2C
:103FDA000E948D1981110BC01092CC2D69817A81B2
:103FEA008B819C8107C060E070E0CB0103C060E078
:103FFA0070E0CB012496CDBFDEBFDF91CF9108954B
:10400A00E091AE2DF091AF2D309701F1A081B181F1
:10401A002C91022E000C330B482F50E02417350741
:10402A0061F0359669F0A081B1812C91022E000CC5
:10403A00330B90E02817390731F48E2F9F2F0895FC
:10404A0080E090E0089580E090E008953596EBCF07
:10405A0040E068ED88E790E00E94532540E068ED73
:10406A008CE790E00E94532540E068ED80E790E0FD
:10407A000E94532541E068ED81E690E00E945325B5
:10408A0040E068ED80E690E00E94532540E068ED4C
:0C409A0082E690E00E94532580E008952B
:1040A6000F931F93CF93DF9300D000D0CDB7DEB729
:1040B600182F89836A8324E030E0AE014F5F5F4F9B
:1040C6006DE281E00E946622082F1093CD2D81E0DB
:1040D600111101C080E00E947A25802F2496CDBF61
:0C40E600DEBFDF91CF911F910F91089574
:1040F200CF93DF93CDB7DEB72E97CDBFDEBFDC0106
:10410200CE0101962EE0FC0111922A95E9F7AA87C9
:10411200BB87FD0101900020E9F73197EA1BFB0BF9
:10412200E887F98721E02E830E94421C2E96CDBF9C
:08413200DEBFDF91CF9108957B
:10413A00CF93C82F0E940520009711F0FC0114822A
:10414A008C2F0E945C18882381F0873F41F08A3FB8
:10415A0079F489E08093D32D8FEF9FEF0BC085E030
:10416A008093D32D8FEF9FEF05C080E090E002C0CF
:08417A008FEF9FEFCF91089534
:104182000F931F93CF93DF93CDB7DEB7E097CDBFE9
:10419200DEBF9B018E010F5F1F4F40E050E061E0E8
:1041A2000E944414811107C020E330E0A8016BE3B0
:1041B20081E00E946622E096CDBFDEBFDF91CF9103
:0641C2001F910F9108950A
:1041C800CF92DF92EF92FF9241155105610571057B
:1041D80081F08091C42D833061F46A017B0184E011
:1041E8000E94F52424E935E240E0C701B6010E94A7
:0C41F800F618FF90EF90DF90CF90089534
:1042040020E031E040E050E068E074E180E090E0DC
:104214000E94391B81110FC020E030E041E050E0E2
:1042240060E07AE180E090E00E94391B91E088230D
:0C42340019F090E001C090E0892F08957F
:1042400021E030E040E050E068E171E180E090E0A2
:104250000E94391B81110FC020E034E040E050E0A3
:1042600060E074E180E090E00E94D81991E088233A
:0C42700019F090E001C090E0892F089543
:10427C00CF92DF92EF92FF92611571058105910546
:10428C0071F0DC01CB016C017D0181E090E00E94BA
:10429C00DC2381E0C81AD108E108F108B1F7FF90DE
:0842AC00EF90DF90CF90089520
:1042B400FC0146815781608171810088F189E02D7C
:1042C400808120E030E0082E000C990B0E94AA188F
:1042D4008093A82D9093A92D21E0181619060CF0AF
:0642E40020E0822F089586
:1042EA000F931F93CF938C010E940E2281110EC04F
:1042FA00B80181E00E944816C82F0E94F521C11119
:10430A0004C0C8010E94761D01C08C2FCF911F9155
:04431A000F91089562
:10431E000E94DE220E94E91DE0E0F4E080818C60C4
:10432E008083E0E4F4E0808183608083E0E6F4E063
:10433E008081806580830E942B1F83E29DE20E9414
:04434E00EA08FBCFAF
:10435200CF930E947E23882369F080E00E942E0E74
:10436200C82F811109C00E949025882339F00E942C
:104372003A2505C0C1E003C0C1E001C0C1E08C2FF5
:04438200CF9108953A
:10438600E0E4F1E081818111FDCFE0E4F1E087EE28
:1043960093E084879587108611868287938781E0CC
:1043A60087838283808381898111FDCF1092520198
:0243B600089568
:1043B8009C0180E0922F9F77220F232F221F330B1F
:1043C80031952115310539F0FB01E80FF11D906891
:1043D80090838F5FEFCFFB01E80FF11D90838F5F14
:0243E800089536
:1043EA008091D22D882329F081508093D22D81117A
:1043FA000AC08091D12D882341F00E94FF1C882396
:10440A0031F080E0089580E0089580E0089584EF17
:02441A00089503
:10441C008091D22D91E0980F9093D22D81110AC0EA
:10442C008091D12D882341F00E94211A882331F0EC
:10443C0080E0089580E0089580E0089584EF089569
:10444C00882391F0E0EAF4E08289887F828B809166
:10445C00D82D882319F081508093D82DE0EAF4E010
:0C446C008289887F8360828B81E0089544
:104478000E9401251092882D1092892D10928A2D64
:1044880010928B2D1092842D1092852D1092862DCE
:0A4498001092872D1092C02D089598
:1044A200CF93DF93EC0170E00E94B617882341F0AE
:1044B20088810E948F1E91E0811103C090E001C0AB
:0A44C20091E0892FDF91CF9108955A
:1044CC00CF92DF92EF92FF920F931F93C12CD12CBE
:1044DC00E12CF12C00E010E00E94DD091F910F91FE
:0A44EC00FF90EF90DF90CF9008954D
:1044F600CF93DF93EC01BC018EE99DE20E94421945
:10450600811105C0BE018CE99DE20E9442191C8200
:084516001D82DF91CF91089591
:10451E000F931F93CF938C01C62F8BEE9CE20E94BC
:10452E00BF244C2F50E0B8018BEE9CE20E947D1B05
:08453E00CF911F910F91089528
:10454600AA1BBB1B51E107C0AA1FBB1FA617B707B3
:1045560010F0A61BB70B881F991F5A95A9F78095CF
:084566009095BC01CD01089500
:10456E0097FB072E16F4009407D077FD09D00E9412
:10457E00A32207FC05D03EF4909581959F4F089598
:08458E00709561957F4F0895BF
:104596008091C82D82608093C82D2091D32C3091B4
:1045A600D42C32272327322721503109A8EEB3E035
:0645B6000E949C23089501
:1045BC000E9414100E94B8230E94B7240E94AF24BA
:1045CC000E942D200E9408240E94C3210E94C42313
:0645DC000E942B2508954A
:1045E200DC016115710571F0680F791FE0ECF8E0EC
:1045F2008C91848393819923ECF784818D936A173C
:064602007B07B1F70895EB
:104608008091D72D81110EC089E7E0E2FCE2DF013D
:104618001D928A95E9F781E08093D72D1092B82DE5
:064628001092B92D089567
:10462E002091CC2D21110AC021E02093CC2D0E9487
:10463E008D19811105C01092CC2D089581E0089539
:04464E0081E008956A
:104652006115710571F0DC01680F791FE0ECF8E07B
:104662009D91948393819923ECF78481A617B707D0
:04467200B9F70895F7
:10467600DC016115710569F0680F791FE0ECF8E05F
:10468600148293819923ECF784818D936A177B07B3
:04469600B9F70895D3
:10469A00DC015096ED91FC9151978081082E000C17
:1046AA00990B0E949D2021E0892B09F020E0822F9E
:0246BA00089561
:1046BC00CF93DF93EC018881882339F0219661E058
:1046CC000E94281589918111FACFDF91CF9108951D
:1046DC007375625F636C69656E74007A6D623132FA
:1046EC00333435004C415641204C58583531380044
:1046FC0020E034E040E050E060E074E180E090E0E5
:0E470C000E94D81991E0811190E0892F089544
:10471A002091D42D211109C021E02093D42DE0EC61
:0E472A00F8E08083918381E0089580E0089597
:10473800A29FB001B39FC001A39F700D811D1124DA
:0E474800911DB29F700D811D1124911D0895C9
:10475600CF93DF93EC010E94FD23811103C0CE01AC
:0A4766000E94F81EDF91CF91089524
:1047700040E068ED80E890E00E945325E0E8F0E03A
:084780001186108680E0089507
:1047880040E068ED80E191E00E945325E0E1F1E02E
:084798001282138280E00895F3
:1047A0000E94D807811106C00E9490250E943A25D8
:0847B00081E0089580E0089506
:1047B800009741F0E3ECF9E03197F1F700C0000011
:0647C8000197C1F70895FE
:1047CE0060E081E00E94281587E893E10197F1F7F8
:0647DE0000C00000089578
:1047E4009C01E0E4F1E0918191FDFDCF209348012B
:0647F40030934901089515
:1047FA0080E00E94C01C811104C091E09093CF2DEB
:06480A00089584EF0895FB
:10481000E0ECF8E083E28083118212821092D42DC2
:06482000138280E0089500
:10482600E82FF0E0EE0FFF1FEC56F24D80819181EC
:064836000E948D2308958D
:10483C000E949C23A59F900DB49F900DA49F800D6A
:06484C00911D11240895E6
:10485200EC010E949A250E949925CE010E949B2577
:06486200CE010E94922528
:10486800FB01DC01480F591FA417B50719F0219166
:064878002D93FACF089514
:10487E00823339F48091C42D813019F482E00E9484
:04488E00F524089570
:104892008091C82D84608093C82D60E375E780E025
:0448A20090E0089505
:1048A600EF920F931F93E12C0E94BC111F910F9161
:0448B600EF900895E2
:1048BA00802557256724F12229233B238325862532
:0448CA0000000000EA
:1048CE008093C408E0ECF8E083818823ECF78091B4
:0448DE00C40808956D
:1048E2004545323031365332364545323542303124
:0248F20035008F
:1048F4008091C82D81608093C82D60E070E0CB0169
:02490400089514
:104906008091C82D88608093C82D60E070E0CB014F
:02491600089502
:104918008091C82D80618093C82D60E070E0CB0144
:024928000895F0
:10492A008093B62D9093B72D6093B42D7093B52DC7
:02493A000895DE
:10493C001092D82D8FED94E20E944925789481E055
:02494C000895CC
:10494E0081E08093C32D60EB76E380E090E00895E4
:10495E0040E068ED80E590E00E94532580E00895E8
:10496E0040E068ED80E091E00E94532580E00895DC
:10497E00FC01808191818283938316821782089530
:10498E001092CC2D69E08CE99AE80E94512208958C
:10499E001092CC2D65E082E19BE80E945122089591
:1049AE001092CF2D0E947D250E94A92180E00895AE
:1049BE00B29905C08091D82D8F5F8093D82D089520
:0E49CE007A0F57039525952595259525952556
:0E49DC0081E09091D82D911101C080E00895E6
:0C49EA009091C42D98138093C42D089563
:0C49F600E0E4F1E082818160828308959A
:0C4A0200E0E4F1E082818E7F8283089561
:0C4A0E00E0E4F1E083818E7F8383089553
:0C4A1A009091420181E090FF80E008953F
:0C4A26008F9381E080938A008F91189597
:0C4A32001092D22D1092D12D80E008953A
:0C4A3E00EE0FFF1F0590F491E02D09948D
:0B4A4A004F54484552544F5049430060
:014A5500FF61
:0A4A560085EF9AE10E9430250895D3
:0A4A60008093A42D9093A52D0895D6
:0A4A6A0080914801909149010895E0
:0A4A740081E08093CC2D80E00895CE
:0A4A7E008093B02D9093B12D0895A0
:0A4A88008091B02D9091B12D08959A
:0A4A92008093BC2D9093BD2D089574
:094A9C00C900E824000000525C8E
:014AA500010F
:084AA600FC0164BF4083089588
:084AAE0080E00E94132408952A
:084AB60088E08093A504089537
:084ABE0088E08093A60408952E
:084AC60082E0809306040895CC
:084ACE0082E0809305040895C5
:064AD6001092C52D0895A9
:064ADC008091C62D089533
:064AE20083EE9CE2089542
:064AE8008091CC2D089521
:064AEE000E94780D0895FE
:064AF4008093D12D08950E
:064AFA000E940E22089547
:064B00001092D42D08956F
:064B06008093C40808952D
:064B0C008091C408089529
:054B1200CFFFFFFF00D2
:044B18000C940000F9
:044B1C0081E0089597
:044B200081E0089593
:044B24000E94A50046
:024B28000895EE
:024B2A000895EC
:024B2C000895EA
:024B2E000895E8
:024B30000895E6
:024B32000895E4
:024B34000895E2
:024B36000895E0
:104B38002C04001B08000630003218003D00002F2E
:104B48006400340400110400132C000404006504FC
:0D4B5800000964002A04002704003E00004C
:104B65006D6368702F696F742F6576656E74730059
:0E4B75004220537562736372696265642E009C
:0A4B8300A72400000000000000005D
:0A4B8D008C2400000000000000006E
:0A4B9700832400000000000000006D
:0A4BA100492400000000000000009D
:0A4BAB00CB22000000000000000013
:0A4BB5007A24000000000000000058
:044BBF00230031009E
:02000004008278
:090000000000020000C00700002E
:00000001FF
